{
  "abi": [
    {
      "anonymous": false,
      "inputs": [
        {
          "indexed": false,
          "internalType": "uint256",
          "name": "id",
          "type": "uint256"
        },
        {
          "indexed": false,
          "internalType": "address",
          "name": "buyer",
          "type": "address"
        }
      ],
      "name": "FundsLocked",
      "type": "event"
    },
    {
      "anonymous": false,
      "inputs": [
        {
          "indexed": false,
          "internalType": "uint256",
          "name": "id",
          "type": "uint256"
        },
        {
          "indexed": false,
          "internalType": "string",
          "name": "title",
          "type": "string"
        },
        {
          "indexed": false,
          "internalType": "uint256",
          "name": "price",
          "type": "uint256"
        },
        {
          "indexed": false,
          "internalType": "address",
          "name": "seller",
          "type": "address"
        }
      ],
      "name": "ListingCreated",
      "type": "event"
    },
    {
      "anonymous": false,
      "inputs": [
        {
          "indexed": false,
          "internalType": "uint256",
          "name": "id",
          "type": "uint256"
        }
      ],
      "name": "TradeCompleted",
      "type": "event"
    },
    {
      "inputs": [
        {
          "internalType": "uint256",
          "name": "_id",
          "type": "uint256"
        }
      ],
      "name": "confirmReceipt",
      "outputs": [],
      "stateMutability": "nonpayable",
      "type": "function"
    },
    {
      "inputs": [
        {
          "internalType": "string",
          "name": "_title",
          "type": "string"
        },
        {
          "internalType": "string",
          "name": "_photoUrl",
          "type": "string"
        },
        {
          "internalType": "uint256",
          "name": "_price",
          "type": "uint256"
        }
      ],
      "name": "createListing",
      "outputs": [],
      "stateMutability": "nonpayable",
      "type": "function"
    },
    {
      "inputs": [
        {
          "internalType": "uint256",
          "name": "_id",
          "type": "uint256"
        }
      ],
      "name": "getListing",
      "outputs": [
        {
          "components": [
            {
              "internalType": "uint256",
              "name": "id",
              "type": "uint256"
            },
            {
              "internalType": "address payable",
              "name": "seller",
              "type": "address"
            },
            {
              "internalType": "address payable",
              "name": "buyer",
              "type": "address"
            },
            {
              "internalType": "string",
              "name": "title",
              "type": "string"
            },
            {
              "internalType": "string",
              "name": "photoUrl",
              "type": "string"
            },
            {
              "internalType": "uint256",
              "name": "price",
              "type": "uint256"
            },
            {
              "internalType": "enum SafeTrade.State",
              "name": "state",
              "type": "uint8"
            }
          ],
          "internalType": "struct SafeTrade.Listing",
          "name": "",
          "type": "tuple"
        }
      ],
      "stateMutability": "view",
      "type": "function"
    },
    {
      "inputs": [],
      "name": "getTotalListings",
      "outputs": [
        {
          "internalType": "uint256",
          "name": "",
          "type": "uint256"
        }
      ],
      "stateMutability": "view",
      "type": "function"
    },
    {
      "inputs": [],
      "name": "listingCount",
      "outputs": [
        {
          "internalType": "uint256",
          "name": "",
          "type": "uint256"
        }
      ],
      "stateMutability": "view",
      "type": "function"
    },
    {
      "inputs": [
        {
          "internalType": "uint256",
          "name": "",
          "type": "uint256"
        }
      ],
      "name": "listings",
      "outputs": [
        {
          "internalType": "uint256",
          "name": "id",
          "type": "uint256"
        },
        {
          "internalType": "address payable",
          "name": "seller",
          "type": "address"
        },
        {
          "internalType": "address payable",
          "name": "buyer",
          "type": "address"
        },
        {
          "internalType": "string",
          "name": "title",
          "type": "string"
        },
        {
          "internalType": "string",
          "name": "photoUrl",
          "type": "string"
        },
        {
          "internalType": "uint256",
          "name": "price",
          "type": "uint256"
        },
        {
          "internalType": "enum SafeTrade.State",
          "name": "state",
          "type": "uint8"
        }
      ],
      "stateMutability": "view",
      "type": "function"
    },
    {
      "inputs": [
        {
          "internalType": "uint256",
          "name": "_id",
          "type": "uint256"
        }
      ],
      "name": "payForListing",
      "outputs": [],
      "stateMutability": "payable",
      "type": "function"
    }
  ],
  "devdoc": {
    "kind": "dev",
    "methods": {},
    "version": 1
  },
  "evm": {
    "assembly": "    /* \"SafeTrade.sol\":61:3187  contract SafeTrade {... */\n  mstore(0x40, 0x80)\n    /* \"SafeTrade.sol\":505:506  0 */\n  0x00\n    /* \"SafeTrade.sol\":475:506  uint256 public listingCount = 0 */\n  dup1\n  sstore\n    /* \"SafeTrade.sol\":61:3187  contract SafeTrade {... */\n  callvalue\n  dup1\n  iszero\n  tag_1\n  jumpi\n  0x00\n  dup1\n  revert\ntag_1:\n  pop\n  dataSize(sub_0)\n  dup1\n  dataOffset(sub_0)\n  0x00\n  codecopy\n  0x00\n  return\nstop\n\nsub_0: assembly {\n        /* \"SafeTrade.sol\":61:3187  contract SafeTrade {... */\n      mstore(0x40, 0x80)\n      jumpi(tag_1, lt(calldatasize, 0x04))\n      shr(0xe0, calldataload(0x00))\n      dup1\n      0x843cba13\n      gt\n      tag_9\n      jumpi\n      dup1\n      0x843cba13\n      eq\n      tag_5\n      jumpi\n      dup1\n      0xa9b07c26\n      eq\n      tag_6\n      jumpi\n      dup1\n      0xde74e57b\n      eq\n      tag_7\n      jumpi\n      dup1\n      0xfbf30c35\n      eq\n      tag_8\n      jumpi\n      0x00\n      dup1\n      revert\n    tag_9:\n      dup1\n      0x107a274a\n      eq\n      tag_2\n      jumpi\n      dup1\n      0x2e99b78d\n      eq\n      tag_3\n      jumpi\n      dup1\n      0x4652c3e2\n      eq\n      tag_4\n      jumpi\n    tag_1:\n      0x00\n      dup1\n      revert\n        /* \"SafeTrade.sol\":2880:2989  function getListing(uint256 _id) public view returns (Listing memory) {... */\n    tag_2:\n      callvalue\n      dup1\n      iszero\n      tag_10\n      jumpi\n      0x00\n      dup1\n      revert\n    tag_10:\n      pop\n      tag_11\n      tag_12\n      calldatasize\n      0x04\n      tag_13\n      jump\t// in\n    tag_12:\n      tag_14\n      jump\t// in\n    tag_11:\n      mload(0x40)\n      tag_15\n      swap2\n      swap1\n      tag_16\n      jump\t// in\n    tag_15:\n      mload(0x40)\n      dup1\n      swap2\n      sub\n      swap1\n      return\n        /* \"SafeTrade.sol\":1670:2151  function payForListing(uint256 _id) public payable {... */\n    tag_3:\n      tag_17\n      tag_18\n      calldatasize\n      0x04\n      tag_13\n      jump\t// in\n    tag_18:\n      tag_19\n      jump\t// in\n    tag_17:\n      stop\n        /* \"SafeTrade.sol\":1016:1588  function createListing(string memory _title, string memory _photoUrl, uint256 _price) public {... */\n    tag_4:\n      callvalue\n      dup1\n      iszero\n      tag_20\n      jumpi\n      0x00\n      dup1\n      revert\n    tag_20:\n      pop\n      tag_17\n      tag_22\n      calldatasize\n      0x04\n      tag_23\n      jump\t// in\n    tag_22:\n      tag_24\n      jump\t// in\n        /* \"SafeTrade.sol\":2241:2779  function confirmReceipt(uint256 _id) public {... */\n    tag_5:\n      callvalue\n      dup1\n      iszero\n      tag_25\n      jumpi\n      0x00\n      dup1\n      revert\n    tag_25:\n      pop\n      tag_17\n      tag_27\n      calldatasize\n      0x04\n      tag_13\n      jump\t// in\n    tag_27:\n      tag_28\n      jump\t// in\n        /* \"SafeTrade.sol\":475:506  uint256 public listingCount = 0 */\n    tag_6:\n      callvalue\n      dup1\n      iszero\n      tag_29\n      jumpi\n      0x00\n      dup1\n      revert\n    tag_29:\n      pop\n      tag_30\n      sload(0x00)\n      dup2\n      jump\n    tag_30:\n      mload(0x40)\n        /* \"#utility.yul\":3528:3553   */\n      swap1\n      dup2\n      mstore\n        /* \"#utility.yul\":3516:3518   */\n      0x20\n        /* \"#utility.yul\":3501:3519   */\n      add\n        /* \"SafeTrade.sol\":475:506  uint256 public listingCount = 0 */\n      tag_15\n        /* \"#utility.yul\":3382:3559   */\n      jump\n        /* \"SafeTrade.sol\":513:556  mapping(uint256 => Listing) public listings */\n    tag_7:\n      callvalue\n      dup1\n      iszero\n      tag_34\n      jumpi\n      0x00\n      dup1\n      revert\n    tag_34:\n      pop\n      tag_35\n      tag_36\n      calldatasize\n      0x04\n      tag_13\n      jump\t// in\n    tag_36:\n      tag_37\n      jump\t// in\n    tag_35:\n      mload(0x40)\n      tag_15\n      swap8\n      swap7\n      swap6\n      swap5\n      swap4\n      swap3\n      swap2\n      swap1\n      tag_39\n      jump\t// in\n        /* \"SafeTrade.sol\":3088:3184  function getTotalListings() public view returns (uint256) {... */\n    tag_8:\n      callvalue\n      dup1\n      iszero\n      tag_40\n      jumpi\n      0x00\n      dup1\n      revert\n    tag_40:\n      pop\n        /* \"SafeTrade.sol\":3137:3144  uint256 */\n      0x00\n        /* \"SafeTrade.sol\":3164:3176  listingCount */\n      sload\n        /* \"SafeTrade.sol\":3088:3184  function getTotalListings() public view returns (uint256) {... */\n      jump(tag_30)\n        /* \"SafeTrade.sol\":2880:2989  function getListing(uint256 _id) public view returns (Listing memory) {... */\n    tag_14:\n        /* \"SafeTrade.sol\":2934:2948  Listing memory */\n      tag_44\n      0x40\n      dup1\n      mload\n      0xe0\n      dup2\n      add\n      dup3\n      mstore\n      0x00\n      dup1\n      dup3\n      mstore\n      0x20\n      dup3\n      add\n      dup2\n      swap1\n      mstore\n      swap2\n      dup2\n      add\n      dup3\n      swap1\n      mstore\n      0x60\n      dup1\n      dup3\n      add\n      dup2\n      swap1\n      mstore\n      0x80\n      dup3\n      add\n      mstore\n      0xa0\n      dup2\n      add\n      dup3\n      swap1\n      mstore\n      swap1\n      0xc0\n      dup3\n      add\n      mstore\n      swap1\n      jump\n    tag_44:\n        /* \"SafeTrade.sol\":2968:2981  listings[_id] */\n      0x00\n      dup3\n      dup2\n      mstore\n        /* \"SafeTrade.sol\":2968:2976  listings */\n      0x01\n        /* \"SafeTrade.sol\":2968:2981  listings[_id] */\n      0x20\n      dup2\n      dup2\n      mstore\n      0x40\n      swap3\n      dup4\n      swap1\n      keccak256\n        /* \"SafeTrade.sol\":2961:2981  return listings[_id] */\n      dup4\n      mload\n      0xe0\n      dup2\n      add\n      dup6\n      mstore\n      dup2\n      sload\n      dup2\n      mstore\n      swap3\n      dup2\n      add\n      sload\n      sub(shl(0xa0, 0x01), 0x01)\n      swap1\n      dup2\n      and\n      swap3\n      dup5\n      add\n      swap3\n      swap1\n      swap3\n      mstore\n      0x02\n      dup2\n      add\n      sload\n      swap1\n      swap2\n      and\n      swap3\n      dup3\n      add\n      swap3\n      swap1\n      swap3\n      mstore\n      0x03\n      dup3\n      add\n      dup1\n      sload\n      swap2\n      swap3\n        /* \"SafeTrade.sol\":2968:2981  listings[_id] */\n      swap2\n        /* \"SafeTrade.sol\":2961:2981  return listings[_id] */\n      0x60\n      dup5\n      add\n      swap2\n      swap1\n      tag_47\n      swap1\n      tag_48\n      jump\t// in\n    tag_47:\n      dup1\n      0x1f\n      add\n      0x20\n      dup1\n      swap2\n      div\n      mul\n      0x20\n      add\n      mload(0x40)\n      swap1\n      dup2\n      add\n      0x40\n      mstore\n      dup1\n      swap3\n      swap2\n      swap1\n      dup2\n      dup2\n      mstore\n      0x20\n      add\n      dup3\n      dup1\n      sload\n      tag_49\n      swap1\n      tag_48\n      jump\t// in\n    tag_49:\n      dup1\n      iszero\n      tag_50\n      jumpi\n      dup1\n      0x1f\n      lt\n      tag_51\n      jumpi\n      0x0100\n      dup1\n      dup4\n      sload\n      div\n      mul\n      dup4\n      mstore\n      swap2\n      0x20\n      add\n      swap2\n      jump(tag_50)\n    tag_51:\n      dup3\n      add\n      swap2\n      swap1\n      0x00\n      mstore\n      keccak256(0x00, 0x20)\n      swap1\n    tag_52:\n      dup2\n      sload\n      dup2\n      mstore\n      swap1\n      0x01\n      add\n      swap1\n      0x20\n      add\n      dup1\n      dup4\n      gt\n      tag_52\n      jumpi\n      dup3\n      swap1\n      sub\n      0x1f\n      and\n      dup3\n      add\n      swap2\n    tag_50:\n      pop\n      pop\n      pop\n      pop\n      pop\n      dup2\n      mstore\n      0x20\n      add\n      0x04\n      dup3\n      add\n      dup1\n      sload\n      tag_53\n      swap1\n      tag_48\n      jump\t// in\n    tag_53:\n      dup1\n      0x1f\n      add\n      0x20\n      dup1\n      swap2\n      div\n      mul\n      0x20\n      add\n      mload(0x40)\n      swap1\n      dup2\n      add\n      0x40\n      mstore\n      dup1\n      swap3\n      swap2\n      swap1\n      dup2\n      dup2\n      mstore\n      0x20\n      add\n      dup3\n      dup1\n      sload\n      tag_54\n      swap1\n      tag_48\n      jump\t// in\n    tag_54:\n      dup1\n      iszero\n      tag_55\n      jumpi\n      dup1\n      0x1f\n      lt\n      tag_56\n      jumpi\n      0x0100\n      dup1\n      dup4\n      sload\n      div\n      mul\n      dup4\n      mstore\n      swap2\n      0x20\n      add\n      swap2\n      jump(tag_55)\n    tag_56:\n      dup3\n      add\n      swap2\n      swap1\n      0x00\n      mstore\n      keccak256(0x00, 0x20)\n      swap1\n    tag_57:\n      dup2\n      sload\n      dup2\n      mstore\n      swap1\n      0x01\n      add\n      swap1\n      0x20\n      add\n      dup1\n      dup4\n      gt\n      tag_57\n      jumpi\n      dup3\n      swap1\n      sub\n      0x1f\n      and\n      dup3\n      add\n      swap2\n    tag_55:\n      pop\n      pop\n      pop\n      swap2\n      dup4\n      mstore\n      pop\n      pop\n      0x05\n      dup3\n      add\n      sload\n      0x20\n      dup3\n      add\n      mstore\n      0x06\n      dup3\n      add\n      sload\n      0x40\n      swap1\n      swap2\n      add\n      swap1\n      0xff\n      and\n      0x02\n      dup2\n      gt\n      iszero\n      tag_59\n      jumpi\n      tag_59\n      tag_60\n      jump\t// in\n    tag_59:\n      0x02\n      dup2\n      gt\n      iszero\n      tag_62\n      jumpi\n      tag_62\n      tag_60\n      jump\t// in\n    tag_62:\n      swap1\n      mstore\n      pop\n      swap3\n        /* \"SafeTrade.sol\":2880:2989  function getListing(uint256 _id) public view returns (Listing memory) {... */\n      swap2\n      pop\n      pop\n      jump\t// out\n        /* \"SafeTrade.sol\":1670:2151  function payForListing(uint256 _id) public payable {... */\n    tag_19:\n        /* \"SafeTrade.sol\":1732:1752  Listing storage item */\n      0x00\n        /* \"SafeTrade.sol\":1755:1768  listings[_id] */\n      dup2\n      dup2\n      mstore\n        /* \"SafeTrade.sol\":1755:1763  listings */\n      0x01\n        /* \"SafeTrade.sol\":1755:1768  listings[_id] */\n      0x20\n      mstore\n      0x40\n      dup2\n      keccak256\n      swap1\n        /* \"SafeTrade.sol\":1797:1807  item.state */\n      0x06\n      dup3\n      add\n      sload\n      0xff\n      and\n        /* \"SafeTrade.sol\":1797:1826  item.state == State.Available */\n      0x02\n      dup2\n      gt\n      iszero\n      tag_67\n      jumpi\n      tag_67\n      tag_60\n      jump\t// in\n    tag_67:\n      eq\n        /* \"SafeTrade.sol\":1789:1852  require(item.state == State.Available, \"Item is not available\") */\n      tag_68\n      jumpi\n      mload(0x40)\n      shl(0xe5, 0x461bcd)\n      dup2\n      mstore\n        /* \"#utility.yul\":5031:5033   */\n      0x20\n        /* \"SafeTrade.sol\":1789:1852  require(item.state == State.Available, \"Item is not available\") */\n      0x04\n      dup3\n      add\n        /* \"#utility.yul\":5013:5034   */\n      mstore\n        /* \"#utility.yul\":5070:5072   */\n      0x15\n        /* \"#utility.yul\":5050:5068   */\n      0x24\n      dup3\n      add\n        /* \"#utility.yul\":5043:5073   */\n      mstore\n        /* \"#utility.yul\":5109:5132   */\n      0x4974656d206973206e6f7420617661696c61626c650000000000000000000000\n        /* \"#utility.yul\":5089:5107   */\n      0x44\n      dup3\n      add\n        /* \"#utility.yul\":5082:5133   */\n      mstore\n        /* \"#utility.yul\":5150:5168   */\n      0x64\n      add\n        /* \"SafeTrade.sol\":1789:1852  require(item.state == State.Available, \"Item is not available\") */\n    tag_69:\n      mload(0x40)\n      dup1\n      swap2\n      sub\n      swap1\n      revert\n    tag_68:\n        /* \"SafeTrade.sol\":1884:1888  item */\n      dup1\n        /* \"SafeTrade.sol\":1884:1894  item.price */\n      0x05\n      add\n      sload\n        /* \"SafeTrade.sol\":1871:1880  msg.value */\n      callvalue\n        /* \"SafeTrade.sol\":1871:1894  msg.value == item.price */\n      eq\n        /* \"SafeTrade.sol\":1863:1935  require(msg.value == item.price, \"Please submit the exact asking price\") */\n      tag_71\n      jumpi\n      mload(0x40)\n      shl(0xe5, 0x461bcd)\n      dup2\n      mstore\n        /* \"#utility.yul\":5381:5383   */\n      0x20\n        /* \"SafeTrade.sol\":1863:1935  require(msg.value == item.price, \"Please submit the exact asking price\") */\n      0x04\n      dup3\n      add\n        /* \"#utility.yul\":5363:5384   */\n      mstore\n        /* \"#utility.yul\":5420:5422   */\n      0x24\n        /* \"#utility.yul\":5400:5418   */\n      dup1\n      dup3\n      add\n        /* \"#utility.yul\":5393:5423   */\n      mstore\n        /* \"#utility.yul\":5459:5493   */\n      0x506c65617365207375626d6974207468652065786163742061736b696e672070\n        /* \"#utility.yul\":5439:5457   */\n      0x44\n      dup3\n      add\n        /* \"#utility.yul\":5432:5494   */\n      mstore\n      shl(0xe0, 0x72696365)\n        /* \"#utility.yul\":5510:5528   */\n      0x64\n      dup3\n      add\n        /* \"#utility.yul\":5503:5537   */\n      mstore\n        /* \"#utility.yul\":5554:5573   */\n      0x84\n      add\n        /* \"SafeTrade.sol\":1863:1935  require(msg.value == item.price, \"Please submit the exact asking price\") */\n      tag_69\n        /* \"#utility.yul\":5179:5579   */\n      jump\n        /* \"SafeTrade.sol\":1863:1935  require(msg.value == item.price, \"Please submit the exact asking price\") */\n    tag_71:\n        /* \"SafeTrade.sol\":1968:1979  item.seller */\n      0x01\n      dup2\n      add\n      sload\n      sub(shl(0xa0, 0x01), 0x01)\n      and\n        /* \"SafeTrade.sol\":1954:1964  msg.sender */\n      caller\n        /* \"SafeTrade.sol\":1954:1979  msg.sender != item.seller */\n      sub\n        /* \"SafeTrade.sol\":1946:2016  require(msg.sender != item.seller, \"Seller cannot buy their own item\") */\n      tag_74\n      jumpi\n      mload(0x40)\n      shl(0xe5, 0x461bcd)\n      dup2\n      mstore\n        /* \"#utility.yul\":5786:5788   */\n      0x20\n        /* \"SafeTrade.sol\":1946:2016  require(msg.sender != item.seller, \"Seller cannot buy their own item\") */\n      0x04\n      dup3\n      add\n        /* \"#utility.yul\":5768:5789   */\n      dup2\n      swap1\n      mstore\n        /* \"#utility.yul\":5805:5823   */\n      0x24\n      dup3\n      add\n        /* \"#utility.yul\":5798:5828   */\n      mstore\n        /* \"#utility.yul\":5864:5898   */\n      0x53656c6c65722063616e6e6f7420627579207468656972206f776e206974656d\n        /* \"#utility.yul\":5844:5862   */\n      0x44\n      dup3\n      add\n        /* \"#utility.yul\":5837:5899   */\n      mstore\n        /* \"#utility.yul\":5916:5934   */\n      0x64\n      add\n        /* \"SafeTrade.sol\":1946:2016  require(msg.sender != item.seller, \"Seller cannot buy their own item\") */\n      tag_69\n        /* \"#utility.yul\":5584:5940   */\n      jump\n        /* \"SafeTrade.sol\":1946:2016  require(msg.sender != item.seller, \"Seller cannot buy their own item\") */\n    tag_74:\n        /* \"SafeTrade.sol\":2029:2039  item.buyer */\n      0x02\n      dup2\n      add\n        /* \"SafeTrade.sol\":2029:2061  item.buyer = payable(msg.sender) */\n      dup1\n      sload\n      not(0xffffffffffffffffffffffffffffffffffffffff)\n      and\n        /* \"SafeTrade.sol\":2050:2060  msg.sender */\n      caller\n        /* \"SafeTrade.sol\":2029:2061  item.buyer = payable(msg.sender) */\n      or\n      swap1\n      sstore\n        /* \"SafeTrade.sol\":2072:2082  item.state */\n      0x06\n      dup2\n      add\n        /* \"SafeTrade.sol\":2072:2097  item.state = State.Locked */\n      dup1\n      sload\n        /* \"SafeTrade.sol\":2029:2061  item.buyer = payable(msg.sender) */\n      0x01\n      swap2\n        /* \"SafeTrade.sol\":2072:2082  item.state */\n      swap1\n      not(0xff)\n        /* \"SafeTrade.sol\":2072:2097  item.state = State.Locked */\n      and\n        /* \"SafeTrade.sol\":2029:2061  item.buyer = payable(msg.sender) */\n      dup3\n      dup1\n        /* \"SafeTrade.sol\":2072:2097  item.state = State.Locked */\n      mul\n      or\n      swap1\n      sstore\n      pop\n        /* \"SafeTrade.sol\":2115:2143  FundsLocked(_id, msg.sender) */\n      0x40\n      dup1\n      mload\n        /* \"#utility.yul\":6119:6144   */\n      dup4\n      dup2\n      mstore\n        /* \"SafeTrade.sol\":2132:2142  msg.sender */\n      caller\n        /* \"#utility.yul\":6175:6177   */\n      0x20\n        /* \"#utility.yul\":6160:6178   */\n      dup3\n      add\n        /* \"#utility.yul\":6153:6236   */\n      mstore\n        /* \"SafeTrade.sol\":2115:2143  FundsLocked(_id, msg.sender) */\n      0xf25533c7b1458761bd5a47b2e091140cc6b5526ca5f8e4b7d662c22d7bd8239a\n      swap2\n        /* \"#utility.yul\":6092:6110   */\n      add\n        /* \"SafeTrade.sol\":2115:2143  FundsLocked(_id, msg.sender) */\n      mload(0x40)\n      dup1\n      swap2\n      sub\n      swap1\n      log1\n        /* \"SafeTrade.sol\":1721:2151  {... */\n      pop\n        /* \"SafeTrade.sol\":1670:2151  function payForListing(uint256 _id) public payable {... */\n      pop\n      jump\t// out\n        /* \"SafeTrade.sol\":1016:1588  function createListing(string memory _title, string memory _photoUrl, uint256 _price) public {... */\n    tag_24:\n        /* \"SafeTrade.sol\":1137:1138  0 */\n      0x00\n        /* \"SafeTrade.sol\":1128:1134  _price */\n      dup2\n        /* \"SafeTrade.sol\":1128:1138  _price > 0 */\n      gt\n        /* \"SafeTrade.sol\":1120:1174  require(_price > 0, \"Price must be greater than zero\") */\n      tag_82\n      jumpi\n      mload(0x40)\n      shl(0xe5, 0x461bcd)\n      dup2\n      mstore\n        /* \"#utility.yul\":6449:6451   */\n      0x20\n        /* \"SafeTrade.sol\":1120:1174  require(_price > 0, \"Price must be greater than zero\") */\n      0x04\n      dup3\n      add\n        /* \"#utility.yul\":6431:6452   */\n      mstore\n        /* \"#utility.yul\":6488:6490   */\n      0x1f\n        /* \"#utility.yul\":6468:6486   */\n      0x24\n      dup3\n      add\n        /* \"#utility.yul\":6461:6491   */\n      mstore\n        /* \"#utility.yul\":6527:6560   */\n      0x5072696365206d7573742062652067726561746572207468616e207a65726f00\n        /* \"#utility.yul\":6507:6525   */\n      0x44\n      dup3\n      add\n        /* \"#utility.yul\":6500:6561   */\n      mstore\n        /* \"#utility.yul\":6578:6596   */\n      0x64\n      add\n        /* \"SafeTrade.sol\":1120:1174  require(_price > 0, \"Price must be greater than zero\") */\n      tag_69\n        /* \"#utility.yul\":6247:6602   */\n      jump\n        /* \"SafeTrade.sol\":1120:1174  require(_price > 0, \"Price must be greater than zero\") */\n    tag_82:\n        /* \"SafeTrade.sol\":1195:1207  listingCount */\n      0x00\n        /* \"SafeTrade.sol\":1195:1209  listingCount++ */\n      dup1\n      sload\n      swap1\n        /* \"SafeTrade.sol\":1195:1207  listingCount */\n      dup1\n        /* \"SafeTrade.sol\":1195:1209  listingCount++ */\n      tag_85\n      dup4\n      tag_86\n      jump\t// in\n    tag_85:\n      swap1\n      swap2\n      sstore\n      pop\n      pop\n        /* \"SafeTrade.sol\":1245:1506  Listing({... */\n      0x40\n      dup1\n      mload\n      0xe0\n      dup2\n      add\n      dup3\n      mstore\n      0x00\n        /* \"SafeTrade.sol\":1272:1284  listingCount */\n      dup1\n      sload\n        /* \"SafeTrade.sol\":1245:1506  Listing({... */\n      dup1\n      dup4\n      mstore\n        /* \"SafeTrade.sol\":1315:1325  msg.sender */\n      caller\n        /* \"SafeTrade.sol\":1245:1506  Listing({... */\n      0x20\n      dup1\n      dup6\n      add\n      swap2\n      dup3\n      mstore\n      dup5\n      dup7\n      add\n      dup5\n      dup2\n      mstore\n      0x60\n      dup7\n      add\n      dup11\n      dup2\n      mstore\n      0x80\n      dup8\n      add\n      dup11\n      swap1\n      mstore\n      0xa0\n      dup8\n      add\n      dup10\n      swap1\n      mstore\n      0xc0\n      dup8\n      add\n      dup7\n      swap1\n      mstore\n        /* \"SafeTrade.sol\":1220:1242  listings[listingCount] */\n      swap4\n      dup6\n      mstore\n        /* \"SafeTrade.sol\":1220:1228  listings */\n      0x01\n        /* \"SafeTrade.sol\":1220:1242  listings[listingCount] */\n      swap2\n      dup3\n      swap1\n      mstore\n      swap6\n      swap1\n      swap4\n      keccak256\n        /* \"SafeTrade.sol\":1220:1506  listings[listingCount] = Listing({... */\n      dup5\n      mload\n      dup2\n      sstore\n      swap1\n      mload\n      swap3\n      dup2\n      add\n      dup1\n      sload\n      not(0xffffffffffffffffffffffffffffffffffffffff)\n      swap1\n      dup2\n      and\n      sub(shl(0xa0, 0x01), 0x01)\n      swap6\n      dup7\n      and\n      or\n      swap1\n      swap2\n      sstore\n      swap5\n      mload\n      0x02\n      dup3\n      add\n      dup1\n      sload\n      swap1\n      swap7\n      and\n      swap4\n      and\n      swap3\n      swap1\n      swap3\n      or\n      swap1\n      swap4\n      sstore\n      swap2\n      mload\n        /* \"SafeTrade.sol\":1245:1506  Listing({... */\n      swap1\n      swap2\n        /* \"SafeTrade.sol\":1220:1242  listings[listingCount] */\n      swap1\n        /* \"SafeTrade.sol\":1220:1506  listings[listingCount] = Listing({... */\n      0x03\n      dup3\n      add\n      swap1\n      tag_89\n      swap1\n      dup3\n      tag_90\n      jump\t// in\n    tag_89:\n      pop\n      0x80\n      dup3\n      add\n      mload\n      0x04\n      dup3\n      add\n      swap1\n      tag_91\n      swap1\n      dup3\n      tag_90\n      jump\t// in\n    tag_91:\n      pop\n      0xa0\n      dup3\n      add\n      mload\n      0x05\n      dup3\n      add\n      sstore\n      0xc0\n      dup3\n      add\n      mload\n      0x06\n      dup3\n      add\n      dup1\n      sload\n      not(0xff)\n      and\n      0x01\n      dup4\n      0x02\n      dup2\n      gt\n      iszero\n      tag_93\n      jumpi\n      tag_93\n      tag_60\n      jump\t// in\n    tag_93:\n      mul\n      or\n      swap1\n      sstore\n      pop\n      swap1\n      pop\n      pop\n        /* \"SafeTrade.sol\":1524:1580  ListingCreated(listingCount, _title, _price, msg.sender) */\n      0x745b3dfe762065dfb3f74abe31fd4c30f096502cfe515d15da5ff3c9fd61d8a2\n        /* \"SafeTrade.sol\":1539:1551  listingCount */\n      sload(0x00)\n        /* \"SafeTrade.sol\":1553:1559  _title */\n      dup5\n        /* \"SafeTrade.sol\":1561:1567  _price */\n      dup4\n        /* \"SafeTrade.sol\":1569:1579  msg.sender */\n      caller\n        /* \"SafeTrade.sol\":1524:1580  ListingCreated(listingCount, _title, _price, msg.sender) */\n      mload(0x40)\n      tag_94\n      swap5\n      swap4\n      swap3\n      swap2\n      swap1\n      tag_95\n      jump\t// in\n    tag_94:\n      mload(0x40)\n      dup1\n      swap2\n      sub\n      swap1\n      log1\n        /* \"SafeTrade.sol\":1016:1588  function createListing(string memory _title, string memory _photoUrl, uint256 _price) public {... */\n      pop\n      pop\n      pop\n      jump\t// out\n        /* \"SafeTrade.sol\":2241:2779  function confirmReceipt(uint256 _id) public {... */\n    tag_28:\n        /* \"SafeTrade.sol\":2296:2316  Listing storage item */\n      0x00\n        /* \"SafeTrade.sol\":2319:2332  listings[_id] */\n      dup2\n      dup2\n      mstore\n        /* \"SafeTrade.sol\":2319:2327  listings */\n      0x01\n        /* \"SafeTrade.sol\":2319:2332  listings[_id] */\n      0x20\n      dup2\n      swap1\n      mstore\n      0x40\n      swap1\n      swap2\n      keccak256\n      swap1\n        /* \"SafeTrade.sol\":2361:2371  item.state */\n      0x06\n      dup3\n      add\n      sload\n      0xff\n      and\n        /* \"SafeTrade.sol\":2361:2387  item.state == State.Locked */\n      0x02\n      dup2\n      gt\n      iszero\n      tag_100\n      jumpi\n      tag_100\n      tag_60\n      jump\t// in\n    tag_100:\n      eq\n        /* \"SafeTrade.sol\":2353:2422  require(item.state == State.Locked, \"Funds are not currently locked\") */\n      tag_101\n      jumpi\n      mload(0x40)\n      shl(0xe5, 0x461bcd)\n      dup2\n      mstore\n        /* \"#utility.yul\":9705:9707   */\n      0x20\n        /* \"SafeTrade.sol\":2353:2422  require(item.state == State.Locked, \"Funds are not currently locked\") */\n      0x04\n      dup3\n      add\n        /* \"#utility.yul\":9687:9708   */\n      mstore\n        /* \"#utility.yul\":9744:9746   */\n      0x1e\n        /* \"#utility.yul\":9724:9742   */\n      0x24\n      dup3\n      add\n        /* \"#utility.yul\":9717:9747   */\n      mstore\n        /* \"#utility.yul\":9783:9815   */\n      0x46756e647320617265206e6f742063757272656e746c79206c6f636b65640000\n        /* \"#utility.yul\":9763:9781   */\n      0x44\n      dup3\n      add\n        /* \"#utility.yul\":9756:9816   */\n      mstore\n        /* \"#utility.yul\":9833:9851   */\n      0x64\n      add\n        /* \"SafeTrade.sol\":2353:2422  require(item.state == State.Locked, \"Funds are not currently locked\") */\n      tag_69\n        /* \"#utility.yul\":9503:9857   */\n      jump\n        /* \"SafeTrade.sol\":2353:2422  require(item.state == State.Locked, \"Funds are not currently locked\") */\n    tag_101:\n        /* \"SafeTrade.sol\":2455:2465  item.buyer */\n      0x02\n      dup2\n      add\n      sload\n      sub(shl(0xa0, 0x01), 0x01)\n      and\n        /* \"SafeTrade.sol\":2441:2451  msg.sender */\n      caller\n        /* \"SafeTrade.sol\":2441:2465  msg.sender == item.buyer */\n      eq\n        /* \"SafeTrade.sol\":2433:2504  require(msg.sender == item.buyer, \"Only the buyer can confirm receipt\") */\n      tag_104\n      jumpi\n      mload(0x40)\n      shl(0xe5, 0x461bcd)\n      dup2\n      mstore\n        /* \"#utility.yul\":10064:10066   */\n      0x20\n        /* \"SafeTrade.sol\":2433:2504  require(msg.sender == item.buyer, \"Only the buyer can confirm receipt\") */\n      0x04\n      dup3\n      add\n        /* \"#utility.yul\":10046:10067   */\n      mstore\n        /* \"#utility.yul\":10103:10105   */\n      0x22\n        /* \"#utility.yul\":10083:10101   */\n      0x24\n      dup3\n      add\n        /* \"#utility.yul\":10076:10106   */\n      mstore\n        /* \"#utility.yul\":10142:10176   */\n      0x4f6e6c79207468652062757965722063616e20636f6e6669726d207265636569\n        /* \"#utility.yul\":10122:10140   */\n      0x44\n      dup3\n      add\n        /* \"#utility.yul\":10115:10177   */\n      mstore\n      shl(0xf2, 0x1c1d)\n        /* \"#utility.yul\":10193:10211   */\n      0x64\n      dup3\n      add\n        /* \"#utility.yul\":10186:10218   */\n      mstore\n        /* \"#utility.yul\":10235:10254   */\n      0x84\n      add\n        /* \"SafeTrade.sol\":2433:2504  require(msg.sender == item.buyer, \"Only the buyer can confirm receipt\") */\n      tag_69\n        /* \"#utility.yul\":9862:10260   */\n      jump\n        /* \"SafeTrade.sol\":2433:2504  require(msg.sender == item.buyer, \"Only the buyer can confirm receipt\") */\n    tag_104:\n        /* \"SafeTrade.sol\":2517:2527  item.state */\n      0x06\n      dup2\n      add\n        /* \"SafeTrade.sol\":2517:2545  item.state = State.Completed */\n      dup1\n      sload\n      not(0xff)\n      and\n        /* \"SafeTrade.sol\":2530:2545  State.Completed */\n      0x02\n        /* \"SafeTrade.sol\":2517:2545  item.state = State.Completed */\n      or\n      swap1\n      sstore\n      0x01\n        /* \"SafeTrade.sol\":2648:2659  item.seller */\n      dup2\n      add\n      sload\n        /* \"SafeTrade.sol\":2672:2682  item.price */\n      0x05\n      dup3\n      add\n      sload\n        /* \"SafeTrade.sol\":2648:2687  item.seller.call{value: item.price}(\"\") */\n      mload(0x40)\n      0x00\n      swap3\n      sub(shl(0xa0, 0x01), 0x01)\n        /* \"SafeTrade.sol\":2648:2659  item.seller */\n      and\n      swap2\n        /* \"SafeTrade.sol\":2672:2682  item.price */\n      swap1\n      dup4\n        /* \"SafeTrade.sol\":2648:2687  item.seller.call{value: item.price}(\"\") */\n      dup2\n      dup2\n      dup2\n        /* \"SafeTrade.sol\":2672:2682  item.price */\n      dup6\n        /* \"SafeTrade.sol\":2648:2659  item.seller */\n      dup8\n        /* \"SafeTrade.sol\":2648:2687  item.seller.call{value: item.price}(\"\") */\n      gas\n      call\n      swap3\n      pop\n      pop\n      pop\n      returndatasize\n      dup1\n      0x00\n      dup2\n      eq\n      tag_113\n      jumpi\n      mload(0x40)\n      swap2\n      pop\n      and(add(returndatasize, 0x3f), not(0x1f))\n      dup3\n      add\n      0x40\n      mstore\n      returndatasize\n      dup3\n      mstore\n      returndatasize\n      0x00\n      0x20\n      dup5\n      add\n      returndatacopy\n      jump(tag_112)\n    tag_113:\n      0x60\n      swap2\n      pop\n    tag_112:\n      pop\n        /* \"SafeTrade.sol\":2629:2687  (bool success, ) = item.seller.call{value: item.price}(\"\") */\n      pop\n      swap1\n      pop\n        /* \"SafeTrade.sol\":2706:2713  success */\n      dup1\n        /* \"SafeTrade.sol\":2698:2734  require(success, \"Transfer failed.\") */\n      tag_114\n      jumpi\n      mload(0x40)\n      shl(0xe5, 0x461bcd)\n      dup2\n      mstore\n        /* \"#utility.yul\":10677:10679   */\n      0x20\n        /* \"SafeTrade.sol\":2698:2734  require(success, \"Transfer failed.\") */\n      0x04\n      dup3\n      add\n        /* \"#utility.yul\":10659:10680   */\n      mstore\n        /* \"#utility.yul\":10716:10718   */\n      0x10\n        /* \"#utility.yul\":10696:10714   */\n      0x24\n      dup3\n      add\n        /* \"#utility.yul\":10689:10719   */\n      mstore\n        /* \"#utility.yul\":10755:10773   */\n      0x5472616e73666572206661696c65642e00000000000000000000000000000000\n        /* \"#utility.yul\":10735:10753   */\n      0x44\n      dup3\n      add\n        /* \"#utility.yul\":10728:10774   */\n      mstore\n        /* \"#utility.yul\":10791:10809   */\n      0x64\n      add\n        /* \"SafeTrade.sol\":2698:2734  require(success, \"Transfer failed.\") */\n      tag_69\n        /* \"#utility.yul\":10475:10815   */\n      jump\n        /* \"SafeTrade.sol\":2698:2734  require(success, \"Transfer failed.\") */\n    tag_114:\n        /* \"SafeTrade.sol\":2752:2771  TradeCompleted(_id) */\n      mload(0x40)\n        /* \"#utility.yul\":3528:3553   */\n      dup4\n      dup2\n      mstore\n        /* \"SafeTrade.sol\":2752:2771  TradeCompleted(_id) */\n      0x60f91a26281f20fb528663f4da55773c83e2ee8a7a5dddb6d1753749e81dc49b\n      swap1\n        /* \"#utility.yul\":3516:3518   */\n      0x20\n        /* \"#utility.yul\":3501:3519   */\n      add\n        /* \"SafeTrade.sol\":2752:2771  TradeCompleted(_id) */\n      tag_94\n        /* \"#utility.yul\":3382:3559   */\n      jump\n        /* \"SafeTrade.sol\":513:556  mapping(uint256 => Listing) public listings */\n    tag_37:\n      0x01\n      0x20\n      dup2\n      swap1\n      mstore\n      0x00\n      swap2\n      dup3\n      mstore\n      0x40\n      swap1\n      swap2\n      keccak256\n      dup1\n      sload\n      swap2\n      dup2\n      add\n      sload\n      0x02\n      dup3\n      add\n      sload\n      0x03\n      dup4\n      add\n      dup1\n      sload\n      sub(shl(0xa0, 0x01), 0x01)\n      swap4\n      dup5\n      and\n      swap5\n      swap3\n      swap1\n      swap4\n      and\n      swap3\n      tag_118\n      swap1\n      tag_48\n      jump\t// in\n    tag_118:\n      dup1\n      0x1f\n      add\n      0x20\n      dup1\n      swap2\n      div\n      mul\n      0x20\n      add\n      mload(0x40)\n      swap1\n      dup2\n      add\n      0x40\n      mstore\n      dup1\n      swap3\n      swap2\n      swap1\n      dup2\n      dup2\n      mstore\n      0x20\n      add\n      dup3\n      dup1\n      sload\n      tag_119\n      swap1\n      tag_48\n      jump\t// in\n    tag_119:\n      dup1\n      iszero\n      tag_120\n      jumpi\n      dup1\n      0x1f\n      lt\n      tag_121\n      jumpi\n      0x0100\n      dup1\n      dup4\n      sload\n      div\n      mul\n      dup4\n      mstore\n      swap2\n      0x20\n      add\n      swap2\n      jump(tag_120)\n    tag_121:\n      dup3\n      add\n      swap2\n      swap1\n      0x00\n      mstore\n      keccak256(0x00, 0x20)\n      swap1\n    tag_122:\n      dup2\n      sload\n      dup2\n      mstore\n      swap1\n      0x01\n      add\n      swap1\n      0x20\n      add\n      dup1\n      dup4\n      gt\n      tag_122\n      jumpi\n      dup3\n      swap1\n      sub\n      0x1f\n      and\n      dup3\n      add\n      swap2\n    tag_120:\n      pop\n      pop\n      pop\n      pop\n      pop\n      swap1\n      dup1\n      0x04\n      add\n      dup1\n      sload\n      tag_123\n      swap1\n      tag_48\n      jump\t// in\n    tag_123:\n      dup1\n      0x1f\n      add\n      0x20\n      dup1\n      swap2\n      div\n      mul\n      0x20\n      add\n      mload(0x40)\n      swap1\n      dup2\n      add\n      0x40\n      mstore\n      dup1\n      swap3\n      swap2\n      swap1\n      dup2\n      dup2\n      mstore\n      0x20\n      add\n      dup3\n      dup1\n      sload\n      tag_124\n      swap1\n      tag_48\n      jump\t// in\n    tag_124:\n      dup1\n      iszero\n      tag_125\n      jumpi\n      dup1\n      0x1f\n      lt\n      tag_126\n      jumpi\n      0x0100\n      dup1\n      dup4\n      sload\n      div\n      mul\n      dup4\n      mstore\n      swap2\n      0x20\n      add\n      swap2\n      jump(tag_125)\n    tag_126:\n      dup3\n      add\n      swap2\n      swap1\n      0x00\n      mstore\n      keccak256(0x00, 0x20)\n      swap1\n    tag_127:\n      dup2\n      sload\n      dup2\n      mstore\n      swap1\n      0x01\n      add\n      swap1\n      0x20\n      add\n      dup1\n      dup4\n      gt\n      tag_127\n      jumpi\n      dup3\n      swap1\n      sub\n      0x1f\n      and\n      dup3\n      add\n      swap2\n    tag_125:\n      pop\n      pop\n      pop\n      pop\n      0x05\n      dup4\n      add\n      sload\n      0x06\n      swap1\n      swap4\n      add\n      sload\n      swap2\n      swap3\n      swap2\n      0xff\n      and\n      swap1\n      pop\n      dup8\n      jump\t// out\n        /* \"#utility.yul\":14:194   */\n    tag_13:\n        /* \"#utility.yul\":73:79   */\n      0x00\n        /* \"#utility.yul\":126:128   */\n      0x20\n        /* \"#utility.yul\":114:123   */\n      dup3\n        /* \"#utility.yul\":105:112   */\n      dup5\n        /* \"#utility.yul\":101:124   */\n      sub\n        /* \"#utility.yul\":97:129   */\n      slt\n        /* \"#utility.yul\":94:146   */\n      iszero\n      tag_140\n      jumpi\n        /* \"#utility.yul\":142:143   */\n      0x00\n        /* \"#utility.yul\":139:140   */\n      dup1\n        /* \"#utility.yul\":132:144   */\n      revert\n        /* \"#utility.yul\":94:146   */\n    tag_140:\n      pop\n        /* \"#utility.yul\":165:188   */\n      calldataload\n      swap2\n        /* \"#utility.yul\":14:194   */\n      swap1\n      pop\n      jump\t// out\n        /* \"#utility.yul\":199:488   */\n    tag_131:\n        /* \"#utility.yul\":241:244   */\n      0x00\n        /* \"#utility.yul\":279:284   */\n      dup2\n        /* \"#utility.yul\":273:285   */\n      mload\n        /* \"#utility.yul\":306:312   */\n      dup1\n        /* \"#utility.yul\":301:304   */\n      dup5\n        /* \"#utility.yul\":294:313   */\n      mstore\n        /* \"#utility.yul\":362:368   */\n      dup1\n        /* \"#utility.yul\":355:359   */\n      0x20\n        /* \"#utility.yul\":348:353   */\n      dup5\n        /* \"#utility.yul\":344:360   */\n      add\n        /* \"#utility.yul\":337:341   */\n      0x20\n        /* \"#utility.yul\":332:335   */\n      dup7\n        /* \"#utility.yul\":328:342   */\n      add\n        /* \"#utility.yul\":322:369   */\n      mcopy\n        /* \"#utility.yul\":414:415   */\n      0x00\n        /* \"#utility.yul\":407:411   */\n      0x20\n        /* \"#utility.yul\":398:404   */\n      dup3\n        /* \"#utility.yul\":393:396   */\n      dup7\n        /* \"#utility.yul\":389:405   */\n      add\n        /* \"#utility.yul\":385:412   */\n      add\n        /* \"#utility.yul\":378:416   */\n      mstore\n        /* \"#utility.yul\":477:481   */\n      0x20\n        /* \"#utility.yul\":470:472   */\n      0x1f\n        /* \"#utility.yul\":466:473   */\n      not\n        /* \"#utility.yul\":461:463   */\n      0x1f\n        /* \"#utility.yul\":453:459   */\n      dup4\n        /* \"#utility.yul\":449:464   */\n      add\n        /* \"#utility.yul\":445:474   */\n      and\n        /* \"#utility.yul\":440:443   */\n      dup6\n        /* \"#utility.yul\":436:475   */\n      add\n        /* \"#utility.yul\":432:482   */\n      add\n        /* \"#utility.yul\":425:482   */\n      swap2\n      pop\n      pop\n        /* \"#utility.yul\":199:488   */\n      swap3\n      swap2\n      pop\n      pop\n      jump\t// out\n        /* \"#utility.yul\":493:620   */\n    tag_60:\n        /* \"#utility.yul\":554:564   */\n      0x4e487b71\n        /* \"#utility.yul\":549:552   */\n      0xe0\n        /* \"#utility.yul\":545:565   */\n      shl\n        /* \"#utility.yul\":542:543   */\n      0x00\n        /* \"#utility.yul\":535:566   */\n      mstore\n        /* \"#utility.yul\":585:589   */\n      0x21\n        /* \"#utility.yul\":582:583   */\n      0x04\n        /* \"#utility.yul\":575:590   */\n      mstore\n        /* \"#utility.yul\":609:613   */\n      0x24\n        /* \"#utility.yul\":606:607   */\n      0x00\n        /* \"#utility.yul\":599:614   */\n      revert\n        /* \"#utility.yul\":625:858   */\n    tag_132:\n        /* \"#utility.yul\":702:703   */\n      0x03\n        /* \"#utility.yul\":695:700   */\n      dup2\n        /* \"#utility.yul\":692:704   */\n      lt\n        /* \"#utility.yul\":682:825   */\n      tag_144\n      jumpi\n        /* \"#utility.yul\":747:757   */\n      0x4e487b71\n        /* \"#utility.yul\":742:745   */\n      0xe0\n        /* \"#utility.yul\":738:758   */\n      shl\n        /* \"#utility.yul\":735:736   */\n      0x00\n        /* \"#utility.yul\":728:759   */\n      mstore\n        /* \"#utility.yul\":782:786   */\n      0x21\n        /* \"#utility.yul\":779:780   */\n      0x04\n        /* \"#utility.yul\":772:787   */\n      mstore\n        /* \"#utility.yul\":810:814   */\n      0x24\n        /* \"#utility.yul\":807:808   */\n      0x00\n        /* \"#utility.yul\":800:815   */\n      revert\n        /* \"#utility.yul\":682:825   */\n    tag_144:\n        /* \"#utility.yul\":834:852   */\n      swap1\n      mstore\n        /* \"#utility.yul\":625:858   */\n      jump\t// out\n        /* \"#utility.yul\":863:1905   */\n    tag_16:\n        /* \"#utility.yul\":1038:1040   */\n      0x20\n        /* \"#utility.yul\":1027:1036   */\n      dup2\n        /* \"#utility.yul\":1020:1041   */\n      mstore\n        /* \"#utility.yul\":1083:1089   */\n      dup2\n        /* \"#utility.yul\":1077:1090   */\n      mload\n        /* \"#utility.yul\":1072:1074   */\n      0x20\n        /* \"#utility.yul\":1061:1070   */\n      dup3\n        /* \"#utility.yul\":1057:1075   */\n      add\n        /* \"#utility.yul\":1050:1091   */\n      mstore\n        /* \"#utility.yul\":1001:1005   */\n      0x00\n        /* \"#utility.yul\":1138:1140   */\n      0x20\n        /* \"#utility.yul\":1130:1136   */\n      dup4\n        /* \"#utility.yul\":1126:1141   */\n      add\n        /* \"#utility.yul\":1120:1142   */\n      mload\n      sub(shl(0xa0, 0x01), 0x01)\n        /* \"#utility.yul\":1257:1259   */\n      dup1\n        /* \"#utility.yul\":1243:1255   */\n      dup3\n        /* \"#utility.yul\":1239:1260   */\n      and\n        /* \"#utility.yul\":1234:1236   */\n      0x40\n        /* \"#utility.yul\":1223:1232   */\n      dup6\n        /* \"#utility.yul\":1219:1237   */\n      add\n        /* \"#utility.yul\":1212:1261   */\n      mstore\n        /* \"#utility.yul\":1325:1327   */\n      dup1\n        /* \"#utility.yul\":1319:1321   */\n      0x40\n        /* \"#utility.yul\":1311:1317   */\n      dup7\n        /* \"#utility.yul\":1307:1322   */\n      add\n        /* \"#utility.yul\":1301:1323   */\n      mload\n        /* \"#utility.yul\":1297:1328   */\n      and\n        /* \"#utility.yul\":1292:1294   */\n      0x60\n        /* \"#utility.yul\":1281:1290   */\n      dup6\n        /* \"#utility.yul\":1277:1295   */\n      add\n        /* \"#utility.yul\":1270:1329   */\n      mstore\n      pop\n      pop\n        /* \"#utility.yul\":1378:1380   */\n      0x60\n        /* \"#utility.yul\":1370:1376   */\n      dup4\n        /* \"#utility.yul\":1366:1381   */\n      add\n        /* \"#utility.yul\":1360:1382   */\n      mload\n        /* \"#utility.yul\":1419:1423   */\n      0xe0\n        /* \"#utility.yul\":1413:1416   */\n      0x80\n        /* \"#utility.yul\":1402:1411   */\n      dup5\n        /* \"#utility.yul\":1398:1417   */\n      add\n        /* \"#utility.yul\":1391:1424   */\n      mstore\n        /* \"#utility.yul\":1447:1501   */\n      tag_146\n        /* \"#utility.yul\":1496:1499   */\n      0x0100\n        /* \"#utility.yul\":1485:1494   */\n      dup5\n        /* \"#utility.yul\":1481:1500   */\n      add\n        /* \"#utility.yul\":1465:1479   */\n      dup3\n        /* \"#utility.yul\":1447:1501   */\n      tag_131\n      jump\t// in\n    tag_146:\n        /* \"#utility.yul\":1433:1501   */\n      swap1\n      pop\n        /* \"#utility.yul\":1550:1553   */\n      0x80\n        /* \"#utility.yul\":1542:1548   */\n      dup5\n        /* \"#utility.yul\":1538:1554   */\n      add\n        /* \"#utility.yul\":1532:1555   */\n      mload\n        /* \"#utility.yul\":1624:1626   */\n      0x1f\n        /* \"#utility.yul\":1620:1627   */\n      not\n        /* \"#utility.yul\":1608:1617   */\n      dup5\n        /* \"#utility.yul\":1600:1606   */\n      dup4\n        /* \"#utility.yul\":1596:1618   */\n      sub\n        /* \"#utility.yul\":1592:1628   */\n      add\n        /* \"#utility.yul\":1586:1589   */\n      0xa0\n        /* \"#utility.yul\":1575:1584   */\n      dup6\n        /* \"#utility.yul\":1571:1590   */\n      add\n        /* \"#utility.yul\":1564:1629   */\n      mstore\n        /* \"#utility.yul\":1652:1693   */\n      tag_147\n        /* \"#utility.yul\":1686:1692   */\n      dup3\n        /* \"#utility.yul\":1670:1684   */\n      dup3\n        /* \"#utility.yul\":1652:1693   */\n      tag_131\n      jump\t// in\n    tag_147:\n        /* \"#utility.yul\":1638:1693   */\n      swap2\n      pop\n      pop\n        /* \"#utility.yul\":1748:1751   */\n      0xa0\n        /* \"#utility.yul\":1740:1746   */\n      dup5\n        /* \"#utility.yul\":1736:1752   */\n      add\n        /* \"#utility.yul\":1730:1753   */\n      mload\n        /* \"#utility.yul\":1724:1727   */\n      0xc0\n        /* \"#utility.yul\":1713:1722   */\n      dup5\n        /* \"#utility.yul\":1709:1728   */\n      add\n        /* \"#utility.yul\":1702:1754   */\n      mstore\n        /* \"#utility.yul\":1803:1806   */\n      0xc0\n        /* \"#utility.yul\":1795:1801   */\n      dup5\n        /* \"#utility.yul\":1791:1807   */\n      add\n        /* \"#utility.yul\":1785:1808   */\n      mload\n        /* \"#utility.yul\":1817:1876   */\n      tag_148\n        /* \"#utility.yul\":1870:1874   */\n      0xe0\n        /* \"#utility.yul\":1859:1868   */\n      dup6\n        /* \"#utility.yul\":1855:1875   */\n      add\n        /* \"#utility.yul\":1839:1853   */\n      dup3\n        /* \"#utility.yul\":1817:1876   */\n      tag_132\n      jump\t// in\n    tag_148:\n      pop\n        /* \"#utility.yul\":1893:1899   */\n      swap4\n        /* \"#utility.yul\":863:1905   */\n      swap3\n      pop\n      pop\n      pop\n      jump\t// out\n        /* \"#utility.yul\":1910:2037   */\n    tag_133:\n        /* \"#utility.yul\":1971:1981   */\n      0x4e487b71\n        /* \"#utility.yul\":1966:1969   */\n      0xe0\n        /* \"#utility.yul\":1962:1982   */\n      shl\n        /* \"#utility.yul\":1959:1960   */\n      0x00\n        /* \"#utility.yul\":1952:1983   */\n      mstore\n        /* \"#utility.yul\":2002:2006   */\n      0x41\n        /* \"#utility.yul\":1999:2000   */\n      0x04\n        /* \"#utility.yul\":1992:2007   */\n      mstore\n        /* \"#utility.yul\":2026:2030   */\n      0x24\n        /* \"#utility.yul\":2023:2024   */\n      0x00\n        /* \"#utility.yul\":2016:2031   */\n      revert\n        /* \"#utility.yul\":2042:2761   */\n    tag_134:\n        /* \"#utility.yul\":2085:2090   */\n      0x00\n        /* \"#utility.yul\":2138:2141   */\n      dup3\n        /* \"#utility.yul\":2131:2135   */\n      0x1f\n        /* \"#utility.yul\":2123:2129   */\n      dup4\n        /* \"#utility.yul\":2119:2136   */\n      add\n        /* \"#utility.yul\":2115:2142   */\n      slt\n        /* \"#utility.yul\":2105:2160   */\n      tag_151\n      jumpi\n        /* \"#utility.yul\":2156:2157   */\n      0x00\n        /* \"#utility.yul\":2153:2154   */\n      dup1\n        /* \"#utility.yul\":2146:2158   */\n      revert\n        /* \"#utility.yul\":2105:2160   */\n    tag_151:\n        /* \"#utility.yul\":2192:2198   */\n      dup2\n        /* \"#utility.yul\":2179:2199   */\n      calldataload\n        /* \"#utility.yul\":2218:2236   */\n      0xffffffffffffffff\n        /* \"#utility.yul\":2255:2257   */\n      dup1\n        /* \"#utility.yul\":2251:2253   */\n      dup3\n        /* \"#utility.yul\":2248:2258   */\n      gt\n        /* \"#utility.yul\":2245:2281   */\n      iszero\n      tag_153\n      jumpi\n        /* \"#utility.yul\":2261:2279   */\n      tag_153\n      tag_133\n      jump\t// in\n    tag_153:\n        /* \"#utility.yul\":2336:2338   */\n      0x40\n        /* \"#utility.yul\":2330:2339   */\n      mload\n        /* \"#utility.yul\":2304:2306   */\n      0x1f\n        /* \"#utility.yul\":2390:2403   */\n      dup4\n      add\n      not(0x1f)\n        /* \"#utility.yul\":2386:2408   */\n      swap1\n      dup2\n      and\n        /* \"#utility.yul\":2410:2412   */\n      0x3f\n        /* \"#utility.yul\":2382:2413   */\n      add\n        /* \"#utility.yul\":2378:2418   */\n      and\n        /* \"#utility.yul\":2366:2419   */\n      dup2\n      add\n      swap1\n        /* \"#utility.yul\":2434:2452   */\n      dup3\n      dup3\n      gt\n        /* \"#utility.yul\":2454:2476   */\n      dup2\n      dup4\n      lt\n        /* \"#utility.yul\":2431:2477   */\n      or\n        /* \"#utility.yul\":2428:2500   */\n      iszero\n      tag_155\n      jumpi\n        /* \"#utility.yul\":2480:2498   */\n      tag_155\n      tag_133\n      jump\t// in\n    tag_155:\n        /* \"#utility.yul\":2520:2530   */\n      dup2\n        /* \"#utility.yul\":2516:2518   */\n      0x40\n        /* \"#utility.yul\":2509:2531   */\n      mstore\n        /* \"#utility.yul\":2555:2557   */\n      dup4\n        /* \"#utility.yul\":2547:2553   */\n      dup2\n        /* \"#utility.yul\":2540:2558   */\n      mstore\n        /* \"#utility.yul\":2601:2604   */\n      dup7\n        /* \"#utility.yul\":2594:2598   */\n      0x20\n        /* \"#utility.yul\":2589:2591   */\n      dup6\n        /* \"#utility.yul\":2581:2587   */\n      dup9\n        /* \"#utility.yul\":2577:2592   */\n      add\n        /* \"#utility.yul\":2573:2599   */\n      add\n        /* \"#utility.yul\":2570:2605   */\n      gt\n        /* \"#utility.yul\":2567:2622   */\n      iszero\n      tag_156\n      jumpi\n        /* \"#utility.yul\":2618:2619   */\n      0x00\n        /* \"#utility.yul\":2615:2616   */\n      dup1\n        /* \"#utility.yul\":2608:2620   */\n      revert\n        /* \"#utility.yul\":2567:2622   */\n    tag_156:\n        /* \"#utility.yul\":2682:2684   */\n      dup4\n        /* \"#utility.yul\":2675:2679   */\n      0x20\n        /* \"#utility.yul\":2667:2673   */\n      dup8\n        /* \"#utility.yul\":2663:2680   */\n      add\n        /* \"#utility.yul\":2656:2660   */\n      0x20\n        /* \"#utility.yul\":2648:2654   */\n      dup4\n        /* \"#utility.yul\":2644:2661   */\n      add\n        /* \"#utility.yul\":2631:2685   */\n      calldatacopy\n        /* \"#utility.yul\":2729:2730   */\n      0x00\n        /* \"#utility.yul\":2722:2726   */\n      0x20\n        /* \"#utility.yul\":2717:2719   */\n      dup6\n        /* \"#utility.yul\":2709:2715   */\n      dup4\n        /* \"#utility.yul\":2705:2720   */\n      add\n        /* \"#utility.yul\":2701:2727   */\n      add\n        /* \"#utility.yul\":2694:2731   */\n      mstore\n        /* \"#utility.yul\":2749:2755   */\n      dup1\n        /* \"#utility.yul\":2740:2755   */\n      swap5\n      pop\n      pop\n      pop\n      pop\n      pop\n        /* \"#utility.yul\":2042:2761   */\n      swap3\n      swap2\n      pop\n      pop\n      jump\t// out\n        /* \"#utility.yul\":2766:3377   */\n    tag_23:\n        /* \"#utility.yul\":2863:2869   */\n      0x00\n        /* \"#utility.yul\":2871:2877   */\n      dup1\n        /* \"#utility.yul\":2879:2885   */\n      0x00\n        /* \"#utility.yul\":2932:2934   */\n      0x60\n        /* \"#utility.yul\":2920:2929   */\n      dup5\n        /* \"#utility.yul\":2911:2918   */\n      dup7\n        /* \"#utility.yul\":2907:2930   */\n      sub\n        /* \"#utility.yul\":2903:2935   */\n      slt\n        /* \"#utility.yul\":2900:2952   */\n      iszero\n      tag_158\n      jumpi\n        /* \"#utility.yul\":2948:2949   */\n      0x00\n        /* \"#utility.yul\":2945:2946   */\n      dup1\n        /* \"#utility.yul\":2938:2950   */\n      revert\n        /* \"#utility.yul\":2900:2952   */\n    tag_158:\n        /* \"#utility.yul\":2988:2997   */\n      dup4\n        /* \"#utility.yul\":2975:2998   */\n      calldataload\n        /* \"#utility.yul\":3017:3035   */\n      0xffffffffffffffff\n        /* \"#utility.yul\":3058:3060   */\n      dup1\n        /* \"#utility.yul\":3050:3056   */\n      dup3\n        /* \"#utility.yul\":3047:3061   */\n      gt\n        /* \"#utility.yul\":3044:3078   */\n      iszero\n      tag_159\n      jumpi\n        /* \"#utility.yul\":3074:3075   */\n      0x00\n        /* \"#utility.yul\":3071:3072   */\n      dup1\n        /* \"#utility.yul\":3064:3076   */\n      revert\n        /* \"#utility.yul\":3044:3078   */\n    tag_159:\n        /* \"#utility.yul\":3097:3147   */\n      tag_160\n        /* \"#utility.yul\":3139:3146   */\n      dup8\n        /* \"#utility.yul\":3130:3136   */\n      dup4\n        /* \"#utility.yul\":3119:3128   */\n      dup9\n        /* \"#utility.yul\":3115:3137   */\n      add\n        /* \"#utility.yul\":3097:3147   */\n      tag_134\n      jump\t// in\n    tag_160:\n        /* \"#utility.yul\":3087:3147   */\n      swap5\n      pop\n        /* \"#utility.yul\":3200:3202   */\n      0x20\n        /* \"#utility.yul\":3189:3198   */\n      dup7\n        /* \"#utility.yul\":3185:3203   */\n      add\n        /* \"#utility.yul\":3172:3204   */\n      calldataload\n        /* \"#utility.yul\":3156:3204   */\n      swap2\n      pop\n        /* \"#utility.yul\":3229:3231   */\n      dup1\n        /* \"#utility.yul\":3219:3227   */\n      dup3\n        /* \"#utility.yul\":3216:3232   */\n      gt\n        /* \"#utility.yul\":3213:3249   */\n      iszero\n      tag_161\n      jumpi\n        /* \"#utility.yul\":3245:3246   */\n      0x00\n        /* \"#utility.yul\":3242:3243   */\n      dup1\n        /* \"#utility.yul\":3235:3247   */\n      revert\n        /* \"#utility.yul\":3213:3249   */\n    tag_161:\n      pop\n        /* \"#utility.yul\":3268:3320   */\n      tag_162\n        /* \"#utility.yul\":3312:3319   */\n      dup7\n        /* \"#utility.yul\":3301:3309   */\n      dup3\n        /* \"#utility.yul\":3290:3299   */\n      dup8\n        /* \"#utility.yul\":3286:3310   */\n      add\n        /* \"#utility.yul\":3268:3320   */\n      tag_134\n      jump\t// in\n    tag_162:\n        /* \"#utility.yul\":3258:3320   */\n      swap3\n      pop\n      pop\n        /* \"#utility.yul\":3367:3369   */\n      0x40\n        /* \"#utility.yul\":3356:3365   */\n      dup5\n        /* \"#utility.yul\":3352:3370   */\n      add\n        /* \"#utility.yul\":3339:3371   */\n      calldataload\n        /* \"#utility.yul\":3329:3371   */\n      swap1\n      pop\n        /* \"#utility.yul\":2766:3377   */\n      swap3\n      pop\n      swap3\n      pop\n      swap3\n      jump\t// out\n        /* \"#utility.yul\":3564:4439   */\n    tag_39:\n        /* \"#utility.yul\":3939:3945   */\n      dup8\n        /* \"#utility.yul\":3928:3937   */\n      dup2\n        /* \"#utility.yul\":3921:3946   */\n      mstore\n        /* \"#utility.yul\":3902:3906   */\n      0x00\n      sub(shl(0xa0, 0x01), 0x01)\n        /* \"#utility.yul\":4055:4057   */\n      dup1\n        /* \"#utility.yul\":4047:4053   */\n      dup10\n        /* \"#utility.yul\":4043:4058   */\n      and\n        /* \"#utility.yul\":4038:4040   */\n      0x20\n        /* \"#utility.yul\":4027:4036   */\n      dup5\n        /* \"#utility.yul\":4023:4041   */\n      add\n        /* \"#utility.yul\":4016:4059   */\n      mstore\n        /* \"#utility.yul\":4107:4109   */\n      dup1\n        /* \"#utility.yul\":4099:4105   */\n      dup9\n        /* \"#utility.yul\":4095:4110   */\n      and\n        /* \"#utility.yul\":4090:4092   */\n      0x40\n        /* \"#utility.yul\":4079:4088   */\n      dup5\n        /* \"#utility.yul\":4075:4093   */\n      add\n        /* \"#utility.yul\":4068:4111   */\n      mstore\n      pop\n        /* \"#utility.yul\":4147:4150   */\n      0xe0\n        /* \"#utility.yul\":4142:4144   */\n      0x60\n        /* \"#utility.yul\":4131:4140   */\n      dup4\n        /* \"#utility.yul\":4127:4145   */\n      add\n        /* \"#utility.yul\":4120:4151   */\n      mstore\n        /* \"#utility.yul\":4174:4220   */\n      tag_165\n        /* \"#utility.yul\":4215:4218   */\n      0xe0\n        /* \"#utility.yul\":4204:4213   */\n      dup4\n        /* \"#utility.yul\":4200:4219   */\n      add\n        /* \"#utility.yul\":4192:4198   */\n      dup8\n        /* \"#utility.yul\":4174:4220   */\n      tag_131\n      jump\t// in\n    tag_165:\n        /* \"#utility.yul\":4269:4278   */\n      dup3\n        /* \"#utility.yul\":4261:4267   */\n      dup2\n        /* \"#utility.yul\":4257:4279   */\n      sub\n        /* \"#utility.yul\":4251:4254   */\n      0x80\n        /* \"#utility.yul\":4240:4249   */\n      dup5\n        /* \"#utility.yul\":4236:4255   */\n      add\n        /* \"#utility.yul\":4229:4280   */\n      mstore\n        /* \"#utility.yul\":4297:4330   */\n      tag_166\n        /* \"#utility.yul\":4323:4329   */\n      dup2\n        /* \"#utility.yul\":4315:4321   */\n      dup8\n        /* \"#utility.yul\":4297:4330   */\n      tag_131\n      jump\t// in\n    tag_166:\n        /* \"#utility.yul\":4289:4330   */\n      swap2\n      pop\n      pop\n        /* \"#utility.yul\":4367:4373   */\n      dup4\n        /* \"#utility.yul\":4361:4364   */\n      0xa0\n        /* \"#utility.yul\":4350:4359   */\n      dup4\n        /* \"#utility.yul\":4346:4365   */\n      add\n        /* \"#utility.yul\":4339:4374   */\n      mstore\n        /* \"#utility.yul\":4383:4433   */\n      tag_167\n        /* \"#utility.yul\":4428:4431   */\n      0xc0\n        /* \"#utility.yul\":4417:4426   */\n      dup4\n        /* \"#utility.yul\":4413:4432   */\n      add\n        /* \"#utility.yul\":4405:4411   */\n      dup5\n        /* \"#utility.yul\":4383:4433   */\n      tag_132\n      jump\t// in\n    tag_167:\n        /* \"#utility.yul\":3564:4439   */\n      swap9\n      swap8\n      pop\n      pop\n      pop\n      pop\n      pop\n      pop\n      pop\n      pop\n      jump\t// out\n        /* \"#utility.yul\":4444:4824   */\n    tag_48:\n        /* \"#utility.yul\":4523:4524   */\n      0x01\n        /* \"#utility.yul\":4519:4531   */\n      dup2\n      dup2\n      shr\n      swap1\n        /* \"#utility.yul\":4566:4578   */\n      dup3\n      and\n      dup1\n        /* \"#utility.yul\":4587:4648   */\n      tag_169\n      jumpi\n        /* \"#utility.yul\":4641:4645   */\n      0x7f\n        /* \"#utility.yul\":4633:4639   */\n      dup3\n        /* \"#utility.yul\":4629:4646   */\n      and\n        /* \"#utility.yul\":4619:4646   */\n      swap2\n      pop\n        /* \"#utility.yul\":4587:4648   */\n    tag_169:\n        /* \"#utility.yul\":4694:4696   */\n      0x20\n        /* \"#utility.yul\":4686:4692   */\n      dup3\n        /* \"#utility.yul\":4683:4697   */\n      lt\n        /* \"#utility.yul\":4663:4681   */\n      dup2\n        /* \"#utility.yul\":4660:4698   */\n      sub\n        /* \"#utility.yul\":4657:4818   */\n      tag_170\n      jumpi\n        /* \"#utility.yul\":4740:4750   */\n      0x4e487b71\n        /* \"#utility.yul\":4735:4738   */\n      0xe0\n        /* \"#utility.yul\":4731:4751   */\n      shl\n        /* \"#utility.yul\":4728:4729   */\n      0x00\n        /* \"#utility.yul\":4721:4752   */\n      mstore\n        /* \"#utility.yul\":4775:4779   */\n      0x22\n        /* \"#utility.yul\":4772:4773   */\n      0x04\n        /* \"#utility.yul\":4765:4780   */\n      mstore\n        /* \"#utility.yul\":4803:4807   */\n      0x24\n        /* \"#utility.yul\":4800:4801   */\n      0x00\n        /* \"#utility.yul\":4793:4808   */\n      revert\n        /* \"#utility.yul\":4657:4818   */\n    tag_170:\n      pop\n        /* \"#utility.yul\":4444:4824   */\n      swap2\n      swap1\n      pop\n      jump\t// out\n        /* \"#utility.yul\":6607:6839   */\n    tag_86:\n        /* \"#utility.yul\":6646:6649   */\n      0x00\n        /* \"#utility.yul\":6667:6684   */\n      0x01\n      dup3\n      add\n        /* \"#utility.yul\":6664:6804   */\n      tag_177\n      jumpi\n        /* \"#utility.yul\":6726:6736   */\n      0x4e487b71\n        /* \"#utility.yul\":6721:6724   */\n      0xe0\n        /* \"#utility.yul\":6717:6737   */\n      shl\n        /* \"#utility.yul\":6714:6715   */\n      0x00\n        /* \"#utility.yul\":6707:6738   */\n      mstore\n        /* \"#utility.yul\":6761:6765   */\n      0x11\n        /* \"#utility.yul\":6758:6759   */\n      0x04\n        /* \"#utility.yul\":6751:6766   */\n      mstore\n        /* \"#utility.yul\":6789:6793   */\n      0x24\n        /* \"#utility.yul\":6786:6787   */\n      0x00\n        /* \"#utility.yul\":6779:6794   */\n      revert\n        /* \"#utility.yul\":6664:6804   */\n    tag_177:\n      pop\n        /* \"#utility.yul\":6831:6832   */\n      0x01\n        /* \"#utility.yul\":6820:6833   */\n      add\n      swap1\n        /* \"#utility.yul\":6607:6839   */\n      jump\t// out\n        /* \"#utility.yul\":6970:7488   */\n    tag_136:\n        /* \"#utility.yul\":7072:7074   */\n      0x1f\n        /* \"#utility.yul\":7067:7070   */\n      dup3\n        /* \"#utility.yul\":7064:7075   */\n      gt\n        /* \"#utility.yul\":7061:7482   */\n      iszero\n      tag_180\n      jumpi\n        /* \"#utility.yul\":7108:7113   */\n      dup1\n        /* \"#utility.yul\":7105:7106   */\n      0x00\n        /* \"#utility.yul\":7098:7114   */\n      mstore\n        /* \"#utility.yul\":7152:7156   */\n      0x20\n        /* \"#utility.yul\":7149:7150   */\n      0x00\n        /* \"#utility.yul\":7139:7157   */\n      keccak256\n        /* \"#utility.yul\":7222:7224   */\n      0x1f\n        /* \"#utility.yul\":7210:7220   */\n      dup5\n        /* \"#utility.yul\":7206:7225   */\n      add\n        /* \"#utility.yul\":7203:7204   */\n      0x05\n        /* \"#utility.yul\":7199:7226   */\n      shr\n        /* \"#utility.yul\":7193:7197   */\n      dup2\n        /* \"#utility.yul\":7189:7227   */\n      add\n        /* \"#utility.yul\":7258:7262   */\n      0x20\n        /* \"#utility.yul\":7246:7256   */\n      dup6\n        /* \"#utility.yul\":7243:7263   */\n      lt\n        /* \"#utility.yul\":7240:7287   */\n      iszero\n      tag_181\n      jumpi\n      pop\n        /* \"#utility.yul\":7281:7285   */\n      dup1\n        /* \"#utility.yul\":7240:7287   */\n    tag_181:\n        /* \"#utility.yul\":7336:7338   */\n      0x1f\n        /* \"#utility.yul\":7331:7334   */\n      dup5\n        /* \"#utility.yul\":7327:7339   */\n      add\n        /* \"#utility.yul\":7324:7325   */\n      0x05\n        /* \"#utility.yul\":7320:7340   */\n      shr\n        /* \"#utility.yul\":7314:7318   */\n      dup3\n        /* \"#utility.yul\":7310:7341   */\n      add\n        /* \"#utility.yul\":7300:7341   */\n      swap2\n      pop\n        /* \"#utility.yul\":7391:7472   */\n    tag_182:\n        /* \"#utility.yul\":7409:7411   */\n      dup2\n        /* \"#utility.yul\":7402:7407   */\n      dup2\n        /* \"#utility.yul\":7399:7412   */\n      lt\n        /* \"#utility.yul\":7391:7472   */\n      iszero\n      tag_184\n      jumpi\n        /* \"#utility.yul\":7468:7469   */\n      0x00\n        /* \"#utility.yul\":7454:7470   */\n      dup2\n      sstore\n        /* \"#utility.yul\":7435:7436   */\n      0x01\n        /* \"#utility.yul\":7424:7437   */\n      add\n        /* \"#utility.yul\":7391:7472   */\n      jump(tag_182)\n    tag_184:\n        /* \"#utility.yul\":7395:7398   */\n      pop\n      pop\n        /* \"#utility.yul\":7061:7482   */\n    tag_180:\n        /* \"#utility.yul\":6970:7488   */\n      pop\n      pop\n      pop\n      jump\t// out\n        /* \"#utility.yul\":7664:9009   */\n    tag_90:\n        /* \"#utility.yul\":7790:7793   */\n      dup2\n        /* \"#utility.yul\":7784:7794   */\n      mload\n        /* \"#utility.yul\":7817:7835   */\n      0xffffffffffffffff\n        /* \"#utility.yul\":7809:7815   */\n      dup2\n        /* \"#utility.yul\":7806:7836   */\n      gt\n        /* \"#utility.yul\":7803:7859   */\n      iszero\n      tag_188\n      jumpi\n        /* \"#utility.yul\":7839:7857   */\n      tag_188\n      tag_133\n      jump\t// in\n    tag_188:\n        /* \"#utility.yul\":7868:7965   */\n      tag_189\n        /* \"#utility.yul\":7958:7964   */\n      dup2\n        /* \"#utility.yul\":7918:7956   */\n      tag_190\n        /* \"#utility.yul\":7950:7954   */\n      dup5\n        /* \"#utility.yul\":7944:7955   */\n      sload\n        /* \"#utility.yul\":7918:7956   */\n      tag_48\n      jump\t// in\n    tag_190:\n        /* \"#utility.yul\":7912:7916   */\n      dup5\n        /* \"#utility.yul\":7868:7965   */\n      tag_136\n      jump\t// in\n    tag_189:\n        /* \"#utility.yul\":8020:8024   */\n      0x20\n      dup1\n        /* \"#utility.yul\":8077:8079   */\n      0x1f\n        /* \"#utility.yul\":8066:8080   */\n      dup4\n      gt\n        /* \"#utility.yul\":8094:8095   */\n      0x01\n        /* \"#utility.yul\":8089:8752   */\n      dup2\n      eq\n      tag_192\n      jumpi\n        /* \"#utility.yul\":8796:8797   */\n      0x00\n        /* \"#utility.yul\":8813:8819   */\n      dup5\n        /* \"#utility.yul\":8810:8899   */\n      iszero\n      tag_193\n      jumpi\n      pop\n        /* \"#utility.yul\":8865:8884   */\n      dup6\n      dup4\n      add\n        /* \"#utility.yul\":8859:8885   */\n      mload\n        /* \"#utility.yul\":8810:8899   */\n    tag_193:\n      not(0x00)\n        /* \"#utility.yul\":7621:7622   */\n      0x03\n        /* \"#utility.yul\":7617:7628   */\n      dup7\n      swap1\n      shl\n        /* \"#utility.yul\":7613:7637   */\n      shr\n        /* \"#utility.yul\":7609:7638   */\n      not\n        /* \"#utility.yul\":7599:7639   */\n      and\n        /* \"#utility.yul\":7645:7646   */\n      0x01\n        /* \"#utility.yul\":7641:7652   */\n      dup6\n      swap1\n      shl\n        /* \"#utility.yul\":7596:7653   */\n      or\n        /* \"#utility.yul\":8912:8993   */\n      dup6\n      sstore\n        /* \"#utility.yul\":8059:9003   */\n      jump(tag_191)\n        /* \"#utility.yul\":8089:8752   */\n    tag_192:\n        /* \"#utility.yul\":6917:6918   */\n      0x00\n        /* \"#utility.yul\":6910:6924   */\n      dup6\n      dup2\n      mstore\n        /* \"#utility.yul\":6954:6958   */\n      0x20\n        /* \"#utility.yul\":6941:6959   */\n      dup2\n      keccak256\n      not(0x1f)\n        /* \"#utility.yul\":8125:8145   */\n      dup7\n      and\n      swap2\n        /* \"#utility.yul\":8243:8479   */\n    tag_196:\n        /* \"#utility.yul\":8257:8264   */\n      dup3\n        /* \"#utility.yul\":8254:8255   */\n      dup2\n        /* \"#utility.yul\":8251:8265   */\n      lt\n        /* \"#utility.yul\":8243:8479   */\n      iszero\n      tag_198\n      jumpi\n        /* \"#utility.yul\":8346:8365   */\n      dup9\n      dup7\n      add\n        /* \"#utility.yul\":8340:8366   */\n      mload\n        /* \"#utility.yul\":8325:8367   */\n      dup3\n      sstore\n        /* \"#utility.yul\":8438:8465   */\n      swap5\n      dup5\n      add\n      swap5\n        /* \"#utility.yul\":8406:8407   */\n      0x01\n        /* \"#utility.yul\":8394:8408   */\n      swap1\n      swap2\n      add\n      swap1\n        /* \"#utility.yul\":8273:8292   */\n      dup5\n      add\n        /* \"#utility.yul\":8243:8479   */\n      jump(tag_196)\n    tag_198:\n        /* \"#utility.yul\":8247:8250   */\n      pop\n        /* \"#utility.yul\":8507:8513   */\n      dup6\n        /* \"#utility.yul\":8498:8505   */\n      dup3\n        /* \"#utility.yul\":8495:8514   */\n      lt\n        /* \"#utility.yul\":8492:8693   */\n      iszero\n      tag_199\n      jumpi\n        /* \"#utility.yul\":8568:8587   */\n      dup8\n      dup6\n      add\n        /* \"#utility.yul\":8562:8588   */\n      mload\n      not(0x00)\n        /* \"#utility.yul\":8651:8652   */\n      0x03\n        /* \"#utility.yul\":8647:8661   */\n      dup9\n      swap1\n      shl\n        /* \"#utility.yul\":8663:8666   */\n      0xf8\n        /* \"#utility.yul\":8643:8667   */\n      and\n        /* \"#utility.yul\":8639:8676   */\n      shr\n        /* \"#utility.yul\":8635:8677   */\n      not\n        /* \"#utility.yul\":8620:8678   */\n      and\n        /* \"#utility.yul\":8605:8679   */\n      dup2\n      sstore\n        /* \"#utility.yul\":8492:8693   */\n    tag_199:\n      pop\n      pop\n        /* \"#utility.yul\":8739:8740   */\n      0x01\n        /* \"#utility.yul\":8730:8736   */\n      dup5\n        /* \"#utility.yul\":8727:8728   */\n      0x01\n        /* \"#utility.yul\":8723:8737   */\n      shl\n        /* \"#utility.yul\":8719:8741   */\n      add\n        /* \"#utility.yul\":8713:8717   */\n      dup6\n        /* \"#utility.yul\":8706:8742   */\n      sstore\n        /* \"#utility.yul\":8059:9003   */\n    tag_191:\n      pop\n      pop\n      pop\n      pop\n        /* \"#utility.yul\":7664:9009   */\n      pop\n      pop\n      jump\t// out\n        /* \"#utility.yul\":9014:9498   */\n    tag_95:\n        /* \"#utility.yul\":9247:9253   */\n      dup5\n        /* \"#utility.yul\":9236:9245   */\n      dup2\n        /* \"#utility.yul\":9229:9254   */\n      mstore\n        /* \"#utility.yul\":9290:9293   */\n      0x80\n        /* \"#utility.yul\":9285:9287   */\n      0x20\n        /* \"#utility.yul\":9274:9283   */\n      dup3\n        /* \"#utility.yul\":9270:9288   */\n      add\n        /* \"#utility.yul\":9263:9294   */\n      mstore\n        /* \"#utility.yul\":9210:9214   */\n      0x00\n        /* \"#utility.yul\":9311:9357   */\n      tag_201\n        /* \"#utility.yul\":9352:9355   */\n      0x80\n        /* \"#utility.yul\":9341:9350   */\n      dup4\n        /* \"#utility.yul\":9337:9356   */\n      add\n        /* \"#utility.yul\":9329:9335   */\n      dup7\n        /* \"#utility.yul\":9311:9357   */\n      tag_131\n      jump\t// in\n    tag_201:\n        /* \"#utility.yul\":9303:9357   */\n      swap1\n      pop\n        /* \"#utility.yul\":9393:9399   */\n      dup4\n        /* \"#utility.yul\":9388:9390   */\n      0x40\n        /* \"#utility.yul\":9377:9386   */\n      dup4\n        /* \"#utility.yul\":9373:9391   */\n      add\n        /* \"#utility.yul\":9366:9400   */\n      mstore\n      sub(shl(0xa0, 0x01), 0x01)\n        /* \"#utility.yul\":9440:9446   */\n      dup4\n        /* \"#utility.yul\":9436:9491   */\n      and\n        /* \"#utility.yul\":9431:9433   */\n      0x60\n        /* \"#utility.yul\":9420:9429   */\n      dup4\n        /* \"#utility.yul\":9416:9434   */\n      add\n        /* \"#utility.yul\":9409:9492   */\n      mstore\n        /* \"#utility.yul\":9014:9498   */\n      swap6\n      swap5\n      pop\n      pop\n      pop\n      pop\n      pop\n      jump\t// out\n\n    auxdata: 0xa26469706673582212209f84fe72a38009d4fdcc214586981b392768ff06ba50160da8bdb63fa3f7b70164736f6c63430008190033\n}\n",
    "bytecode": {
      "linkReferences": {},
      "object": "60806040525f80553480156011575f80fd5b50610de28061001f5f395ff3fe60806040526004361061006e575f3560e01c8063843cba131161004c578063843cba13146100db578063a9b07c26146100fa578063de74e57b1461011c578063fbf30c351461014e575f80fd5b8063107a274a146100725780632e99b78d146100a75780634652c3e2146100bc575b5f80fd5b34801561007d575f80fd5b5061009161008c36600461099c565b610161565b60405161009e9190610a15565b60405180910390f35b6100ba6100b536600461099c565b610348565b005b3480156100c7575f80fd5b506100ba6100d6366004610b3f565b6104ee565b3480156100e6575f80fd5b506100ba6100f536600461099c565b610681565b348015610105575f80fd5b5061010e5f5481565b60405190815260200161009e565b348015610127575f80fd5b5061013b61013636600461099c565b610844565b60405161009e9796959493929190610ba7565b348015610159575f80fd5b505f5461010e565b61019c6040805160e0810182525f808252602082018190529181018290526060808201819052608082015260a081018290529060c082015290565b5f82815260016020818152604092839020835160e08101855281548152928101546001600160a01b03908116928401929092526002810154909116928201929092526003820180549192916060840191906101f690610c0c565b80601f016020809104026020016040519081016040528092919081815260200182805461022290610c0c565b801561026d5780601f106102445761010080835404028352916020019161026d565b820191905f5260205f20905b81548152906001019060200180831161025057829003601f168201915b5050505050815260200160048201805461028690610c0c565b80601f01602080910402602001604051908101604052809291908181526020018280546102b290610c0c565b80156102fd5780601f106102d4576101008083540402835291602001916102fd565b820191905f5260205f20905b8154815290600101906020018083116102e057829003601f168201915b505050918352505060058201546020820152600682015460409091019060ff16600281111561032e5761032e6109e1565b600281111561033f5761033f6109e1565b90525092915050565b5f81815260016020526040812090600682015460ff16600281111561036f5761036f6109e1565b146103c15760405162461bcd60e51b815260206004820152601560248201527f4974656d206973206e6f7420617661696c61626c65000000000000000000000060448201526064015b60405180910390fd5b806005015434146104205760405162461bcd60e51b8152602060048201526024808201527f506c65617365207375626d6974207468652065786163742061736b696e6720706044820152637269636560e01b60648201526084016103b8565b60018101546001600160a01b0316330361047c5760405162461bcd60e51b815260206004820181905260248201527f53656c6c65722063616e6e6f7420627579207468656972206f776e206974656d60448201526064016103b8565b60028101805473ffffffffffffffffffffffffffffffffffffffff1916331790556006810180546001919060ff191682800217905550604080518381523360208201527ff25533c7b1458761bd5a47b2e091140cc6b5526ca5f8e4b7d662c22d7bd8239a910160405180910390a15050565b5f811161053d5760405162461bcd60e51b815260206004820152601f60248201527f5072696365206d7573742062652067726561746572207468616e207a65726f0060448201526064016103b8565b5f8054908061054b83610c44565b90915550506040805160e0810182525f8054808352336020808501918252848601848152606086018a8152608087018a905260a0870189905260c0870186905293855260019182905295909320845181559051928101805473ffffffffffffffffffffffffffffffffffffffff199081166001600160a01b03958616179091559451600282018054909616931692909217909355915190919060038201906105f39082610cb4565b50608082015160048201906106089082610cb4565b5060a0820151600582015560c082015160068201805460ff19166001836002811115610636576106366109e1565b02179055509050507f745b3dfe762065dfb3f74abe31fd4c30f096502cfe515d15da5ff3c9fd61d8a25f548483336040516106749493929190610d74565b60405180910390a1505050565b5f81815260016020819052604090912090600682015460ff1660028111156106ab576106ab6109e1565b146106f85760405162461bcd60e51b815260206004820152601e60248201527f46756e647320617265206e6f742063757272656e746c79206c6f636b6564000060448201526064016103b8565b60028101546001600160a01b0316331461075f5760405162461bcd60e51b815260206004820152602260248201527f4f6e6c79207468652062757965722063616e20636f6e6669726d2072656365696044820152611c1d60f21b60648201526084016103b8565b60068101805460ff19166002179055600181015460058201546040515f926001600160a01b031691908381818185875af1925050503d805f81146107be576040519150601f19603f3d011682016040523d82523d5f602084013e6107c3565b606091505b50509050806108145760405162461bcd60e51b815260206004820152601060248201527f5472616e73666572206661696c65642e0000000000000000000000000000000060448201526064016103b8565b6040518381527f60f91a26281f20fb528663f4da55773c83e2ee8a7a5dddb6d1753749e81dc49b90602001610674565b600160208190525f918252604090912080549181015460028201546003830180546001600160a01b0393841694929093169261087f90610c0c565b80601f01602080910402602001604051908101604052809291908181526020018280546108ab90610c0c565b80156108f65780601f106108cd576101008083540402835291602001916108f6565b820191905f5260205f20905b8154815290600101906020018083116108d957829003601f168201915b50505050509080600401805461090b90610c0c565b80601f016020809104026020016040519081016040528092919081815260200182805461093790610c0c565b80156109825780601f1061095957610100808354040283529160200191610982565b820191905f5260205f20905b81548152906001019060200180831161096557829003601f168201915b50505050600583015460069093015491929160ff16905087565b5f602082840312156109ac575f80fd5b5035919050565b5f81518084528060208401602086015e5f602082860101526020601f19601f83011685010191505092915050565b634e487b7160e01b5f52602160045260245ffd5b60038110610a1157634e487b7160e01b5f52602160045260245ffd5b9052565b60208152815160208201525f60208301516001600160a01b0380821660408501528060408601511660608501525050606083015160e06080840152610a5e6101008401826109b3565b90506080840151601f198483030160a0850152610a7b82826109b3565b91505060a084015160c084015260c0840151610a9a60e08501826109f5565b509392505050565b634e487b7160e01b5f52604160045260245ffd5b5f82601f830112610ac5575f80fd5b813567ffffffffffffffff80821115610ae057610ae0610aa2565b604051601f8301601f19908116603f01168101908282118183101715610b0857610b08610aa2565b81604052838152866020858801011115610b20575f80fd5b836020870160208301375f602085830101528094505050505092915050565b5f805f60608486031215610b51575f80fd5b833567ffffffffffffffff80821115610b68575f80fd5b610b7487838801610ab6565b94506020860135915080821115610b89575f80fd5b50610b9686828701610ab6565b925050604084013590509250925092565b8781525f6001600160a01b03808916602084015280881660408401525060e06060830152610bd860e08301876109b3565b8281036080840152610bea81876109b3565b9150508360a0830152610c0060c08301846109f5565b98975050505050505050565b600181811c90821680610c2057607f821691505b602082108103610c3e57634e487b7160e01b5f52602260045260245ffd5b50919050565b5f60018201610c6157634e487b7160e01b5f52601160045260245ffd5b5060010190565b601f821115610caf57805f5260205f20601f840160051c81016020851015610c8d5750805b601f840160051c820191505b81811015610cac575f8155600101610c99565b50505b505050565b815167ffffffffffffffff811115610cce57610cce610aa2565b610ce281610cdc8454610c0c565b84610c68565b602080601f831160018114610d15575f8415610cfe5750858301515b5f19600386901b1c1916600185901b178555610d6c565b5f85815260208120601f198616915b82811015610d4357888601518255948401946001909101908401610d24565b5085821015610d6057878501515f19600388901b60f8161c191681555b505060018460011b0185555b505050505050565b848152608060208201525f610d8c60808301866109b3565b90508360408301526001600160a01b03831660608301529594505050505056fea26469706673582212209f84fe72a38009d4fdcc214586981b392768ff06ba50160da8bdb63fa3f7b70164736f6c63430008190033",
      "opcodes": "PUSH1 0x80 PUSH1 0x40 MSTORE PUSH0 DUP1 SSTORE CALLVALUE DUP1 ISZERO PUSH1 0x11 JUMPI PUSH0 DUP1 REVERT JUMPDEST POP PUSH2 0xDE2 DUP1 PUSH2 0x1F PUSH0 CODECOPY PUSH0 RETURN INVALID PUSH1 0x80 PUSH1 0x40 MSTORE PUSH1 0x4 CALLDATASIZE LT PUSH2 0x6E JUMPI PUSH0 CALLDATALOAD PUSH1 0xE0 SHR DUP1 PUSH4 0x843CBA13 GT PUSH2 0x4C JUMPI DUP1 PUSH4 0x843CBA13 EQ PUSH2 0xDB JUMPI DUP1 PUSH4 0xA9B07C26 EQ PUSH2 0xFA JUMPI DUP1 PUSH4 0xDE74E57B EQ PUSH2 0x11C JUMPI DUP1 PUSH4 0xFBF30C35 EQ PUSH2 0x14E JUMPI PUSH0 DUP1 REVERT JUMPDEST DUP1 PUSH4 0x107A274A EQ PUSH2 0x72 JUMPI DUP1 PUSH4 0x2E99B78D EQ PUSH2 0xA7 JUMPI DUP1 PUSH4 0x4652C3E2 EQ PUSH2 0xBC JUMPI JUMPDEST PUSH0 DUP1 REVERT JUMPDEST CALLVALUE DUP1 ISZERO PUSH2 0x7D JUMPI PUSH0 DUP1 REVERT JUMPDEST POP PUSH2 0x91 PUSH2 0x8C CALLDATASIZE PUSH1 0x4 PUSH2 0x99C JUMP JUMPDEST PUSH2 0x161 JUMP JUMPDEST PUSH1 0x40 MLOAD PUSH2 0x9E SWAP2 SWAP1 PUSH2 0xA15 JUMP JUMPDEST PUSH1 0x40 MLOAD DUP1 SWAP2 SUB SWAP1 RETURN JUMPDEST PUSH2 0xBA PUSH2 0xB5 CALLDATASIZE PUSH1 0x4 PUSH2 0x99C JUMP JUMPDEST PUSH2 0x348 JUMP JUMPDEST STOP JUMPDEST CALLVALUE DUP1 ISZERO PUSH2 0xC7 JUMPI PUSH0 DUP1 REVERT JUMPDEST POP PUSH2 0xBA PUSH2 0xD6 CALLDATASIZE PUSH1 0x4 PUSH2 0xB3F JUMP JUMPDEST PUSH2 0x4EE JUMP JUMPDEST CALLVALUE DUP1 ISZERO PUSH2 0xE6 JUMPI PUSH0 DUP1 REVERT JUMPDEST POP PUSH2 0xBA PUSH2 0xF5 CALLDATASIZE PUSH1 0x4 PUSH2 0x99C JUMP JUMPDEST PUSH2 0x681 JUMP JUMPDEST CALLVALUE DUP1 ISZERO PUSH2 0x105 JUMPI PUSH0 DUP1 REVERT JUMPDEST POP PUSH2 0x10E PUSH0 SLOAD DUP2 JUMP JUMPDEST PUSH1 0x40 MLOAD SWAP1 DUP2 MSTORE PUSH1 0x20 ADD PUSH2 0x9E JUMP JUMPDEST CALLVALUE DUP1 ISZERO PUSH2 0x127 JUMPI PUSH0 DUP1 REVERT JUMPDEST POP PUSH2 0x13B PUSH2 0x136 CALLDATASIZE PUSH1 0x4 PUSH2 0x99C JUMP JUMPDEST PUSH2 0x844 JUMP JUMPDEST PUSH1 0x40 MLOAD PUSH2 0x9E SWAP8 SWAP7 SWAP6 SWAP5 SWAP4 SWAP3 SWAP2 SWAP1 PUSH2 0xBA7 JUMP JUMPDEST CALLVALUE DUP1 ISZERO PUSH2 0x159 JUMPI PUSH0 DUP1 REVERT JUMPDEST POP PUSH0 SLOAD PUSH2 0x10E JUMP JUMPDEST PUSH2 0x19C PUSH1 0x40 DUP1 MLOAD PUSH1 0xE0 DUP2 ADD DUP3 MSTORE PUSH0 DUP1 DUP3 MSTORE PUSH1 0x20 DUP3 ADD DUP2 SWAP1 MSTORE SWAP2 DUP2 ADD DUP3 SWAP1 MSTORE PUSH1 0x60 DUP1 DUP3 ADD DUP2 SWAP1 MSTORE PUSH1 0x80 DUP3 ADD MSTORE PUSH1 0xA0 DUP2 ADD DUP3 SWAP1 MSTORE SWAP1 PUSH1 0xC0 DUP3 ADD MSTORE SWAP1 JUMP JUMPDEST PUSH0 DUP3 DUP2 MSTORE PUSH1 0x1 PUSH1 0x20 DUP2 DUP2 MSTORE PUSH1 0x40 SWAP3 DUP4 SWAP1 KECCAK256 DUP4 MLOAD PUSH1 0xE0 DUP2 ADD DUP6 MSTORE DUP2 SLOAD DUP2 MSTORE SWAP3 DUP2 ADD SLOAD PUSH1 0x1 PUSH1 0x1 PUSH1 0xA0 SHL SUB SWAP1 DUP2 AND SWAP3 DUP5 ADD SWAP3 SWAP1 SWAP3 MSTORE PUSH1 0x2 DUP2 ADD SLOAD SWAP1 SWAP2 AND SWAP3 DUP3 ADD SWAP3 SWAP1 SWAP3 MSTORE PUSH1 0x3 DUP3 ADD DUP1 SLOAD SWAP2 SWAP3 SWAP2 PUSH1 0x60 DUP5 ADD SWAP2 SWAP1 PUSH2 0x1F6 SWAP1 PUSH2 0xC0C JUMP JUMPDEST DUP1 PUSH1 0x1F ADD PUSH1 0x20 DUP1 SWAP2 DIV MUL PUSH1 0x20 ADD PUSH1 0x40 MLOAD SWAP1 DUP2 ADD PUSH1 0x40 MSTORE DUP1 SWAP3 SWAP2 SWAP1 DUP2 DUP2 MSTORE PUSH1 0x20 ADD DUP3 DUP1 SLOAD PUSH2 0x222 SWAP1 PUSH2 0xC0C JUMP JUMPDEST DUP1 ISZERO PUSH2 0x26D JUMPI DUP1 PUSH1 0x1F LT PUSH2 0x244 JUMPI PUSH2 0x100 DUP1 DUP4 SLOAD DIV MUL DUP4 MSTORE SWAP2 PUSH1 0x20 ADD SWAP2 PUSH2 0x26D JUMP JUMPDEST DUP3 ADD SWAP2 SWAP1 PUSH0 MSTORE PUSH1 0x20 PUSH0 KECCAK256 SWAP1 JUMPDEST DUP2 SLOAD DUP2 MSTORE SWAP1 PUSH1 0x1 ADD SWAP1 PUSH1 0x20 ADD DUP1 DUP4 GT PUSH2 0x250 JUMPI DUP3 SWAP1 SUB PUSH1 0x1F AND DUP3 ADD SWAP2 JUMPDEST POP POP POP POP POP DUP2 MSTORE PUSH1 0x20 ADD PUSH1 0x4 DUP3 ADD DUP1 SLOAD PUSH2 0x286 SWAP1 PUSH2 0xC0C JUMP JUMPDEST DUP1 PUSH1 0x1F ADD PUSH1 0x20 DUP1 SWAP2 DIV MUL PUSH1 0x20 ADD PUSH1 0x40 MLOAD SWAP1 DUP2 ADD PUSH1 0x40 MSTORE DUP1 SWAP3 SWAP2 SWAP1 DUP2 DUP2 MSTORE PUSH1 0x20 ADD DUP3 DUP1 SLOAD PUSH2 0x2B2 SWAP1 PUSH2 0xC0C JUMP JUMPDEST DUP1 ISZERO PUSH2 0x2FD JUMPI DUP1 PUSH1 0x1F LT PUSH2 0x2D4 JUMPI PUSH2 0x100 DUP1 DUP4 SLOAD DIV MUL DUP4 MSTORE SWAP2 PUSH1 0x20 ADD SWAP2 PUSH2 0x2FD JUMP JUMPDEST DUP3 ADD SWAP2 SWAP1 PUSH0 MSTORE PUSH1 0x20 PUSH0 KECCAK256 SWAP1 JUMPDEST DUP2 SLOAD DUP2 MSTORE SWAP1 PUSH1 0x1 ADD SWAP1 PUSH1 0x20 ADD DUP1 DUP4 GT PUSH2 0x2E0 JUMPI DUP3 SWAP1 SUB PUSH1 0x1F AND DUP3 ADD SWAP2 JUMPDEST POP POP POP SWAP2 DUP4 MSTORE POP POP PUSH1 0x5 DUP3 ADD SLOAD PUSH1 0x20 DUP3 ADD MSTORE PUSH1 0x6 DUP3 ADD SLOAD PUSH1 0x40 SWAP1 SWAP2 ADD SWAP1 PUSH1 0xFF AND PUSH1 0x2 DUP2 GT ISZERO PUSH2 0x32E JUMPI PUSH2 0x32E PUSH2 0x9E1 JUMP JUMPDEST PUSH1 0x2 DUP2 GT ISZERO PUSH2 0x33F JUMPI PUSH2 0x33F PUSH2 0x9E1 JUMP JUMPDEST SWAP1 MSTORE POP SWAP3 SWAP2 POP POP JUMP JUMPDEST PUSH0 DUP2 DUP2 MSTORE PUSH1 0x1 PUSH1 0x20 MSTORE PUSH1 0x40 DUP2 KECCAK256 SWAP1 PUSH1 0x6 DUP3 ADD SLOAD PUSH1 0xFF AND PUSH1 0x2 DUP2 GT ISZERO PUSH2 0x36F JUMPI PUSH2 0x36F PUSH2 0x9E1 JUMP JUMPDEST EQ PUSH2 0x3C1 JUMPI PUSH1 0x40 MLOAD PUSH3 0x461BCD PUSH1 0xE5 SHL DUP2 MSTORE PUSH1 0x20 PUSH1 0x4 DUP3 ADD MSTORE PUSH1 0x15 PUSH1 0x24 DUP3 ADD MSTORE PUSH32 0x4974656D206973206E6F7420617661696C61626C650000000000000000000000 PUSH1 0x44 DUP3 ADD MSTORE PUSH1 0x64 ADD JUMPDEST PUSH1 0x40 MLOAD DUP1 SWAP2 SUB SWAP1 REVERT JUMPDEST DUP1 PUSH1 0x5 ADD SLOAD CALLVALUE EQ PUSH2 0x420 JUMPI PUSH1 0x40 MLOAD PUSH3 0x461BCD PUSH1 0xE5 SHL DUP2 MSTORE PUSH1 0x20 PUSH1 0x4 DUP3 ADD MSTORE PUSH1 0x24 DUP1 DUP3 ADD MSTORE PUSH32 0x506C65617365207375626D6974207468652065786163742061736B696E672070 PUSH1 0x44 DUP3 ADD MSTORE PUSH4 0x72696365 PUSH1 0xE0 SHL PUSH1 0x64 DUP3 ADD MSTORE PUSH1 0x84 ADD PUSH2 0x3B8 JUMP JUMPDEST PUSH1 0x1 DUP2 ADD SLOAD PUSH1 0x1 PUSH1 0x1 PUSH1 0xA0 SHL SUB AND CALLER SUB PUSH2 0x47C JUMPI PUSH1 0x40 MLOAD PUSH3 0x461BCD PUSH1 0xE5 SHL DUP2 MSTORE PUSH1 0x20 PUSH1 0x4 DUP3 ADD DUP2 SWAP1 MSTORE PUSH1 0x24 DUP3 ADD MSTORE PUSH32 0x53656C6C65722063616E6E6F7420627579207468656972206F776E206974656D PUSH1 0x44 DUP3 ADD MSTORE PUSH1 0x64 ADD PUSH2 0x3B8 JUMP JUMPDEST PUSH1 0x2 DUP2 ADD DUP1 SLOAD PUSH20 0xFFFFFFFFFFFFFFFFFFFFFFFFFFFFFFFFFFFFFFFF NOT AND CALLER OR SWAP1 SSTORE PUSH1 0x6 DUP2 ADD DUP1 SLOAD PUSH1 0x1 SWAP2 SWAP1 PUSH1 0xFF NOT AND DUP3 DUP1 MUL OR SWAP1 SSTORE POP PUSH1 0x40 DUP1 MLOAD DUP4 DUP2 MSTORE CALLER PUSH1 0x20 DUP3 ADD MSTORE PUSH32 0xF25533C7B1458761BD5A47B2E091140CC6B5526CA5F8E4B7D662C22D7BD8239A SWAP2 ADD PUSH1 0x40 MLOAD DUP1 SWAP2 SUB SWAP1 LOG1 POP POP JUMP JUMPDEST PUSH0 DUP2 GT PUSH2 0x53D JUMPI PUSH1 0x40 MLOAD PUSH3 0x461BCD PUSH1 0xE5 SHL DUP2 MSTORE PUSH1 0x20 PUSH1 0x4 DUP3 ADD MSTORE PUSH1 0x1F PUSH1 0x24 DUP3 ADD MSTORE PUSH32 0x5072696365206D7573742062652067726561746572207468616E207A65726F00 PUSH1 0x44 DUP3 ADD MSTORE PUSH1 0x64 ADD PUSH2 0x3B8 JUMP JUMPDEST PUSH0 DUP1 SLOAD SWAP1 DUP1 PUSH2 0x54B DUP4 PUSH2 0xC44 JUMP JUMPDEST SWAP1 SWAP2 SSTORE POP POP PUSH1 0x40 DUP1 MLOAD PUSH1 0xE0 DUP2 ADD DUP3 MSTORE PUSH0 DUP1 SLOAD DUP1 DUP4 MSTORE CALLER PUSH1 0x20 DUP1 DUP6 ADD SWAP2 DUP3 MSTORE DUP5 DUP7 ADD DUP5 DUP2 MSTORE PUSH1 0x60 DUP7 ADD DUP11 DUP2 MSTORE PUSH1 0x80 DUP8 ADD DUP11 SWAP1 MSTORE PUSH1 0xA0 DUP8 ADD DUP10 SWAP1 MSTORE PUSH1 0xC0 DUP8 ADD DUP7 SWAP1 MSTORE SWAP4 DUP6 MSTORE PUSH1 0x1 SWAP2 DUP3 SWAP1 MSTORE SWAP6 SWAP1 SWAP4 KECCAK256 DUP5 MLOAD DUP2 SSTORE SWAP1 MLOAD SWAP3 DUP2 ADD DUP1 SLOAD PUSH20 0xFFFFFFFFFFFFFFFFFFFFFFFFFFFFFFFFFFFFFFFF NOT SWAP1 DUP2 AND PUSH1 0x1 PUSH1 0x1 PUSH1 0xA0 SHL SUB SWAP6 DUP7 AND OR SWAP1 SWAP2 SSTORE SWAP5 MLOAD PUSH1 0x2 DUP3 ADD DUP1 SLOAD SWAP1 SWAP7 AND SWAP4 AND SWAP3 SWAP1 SWAP3 OR SWAP1 SWAP4 SSTORE SWAP2 MLOAD SWAP1 SWAP2 SWAP1 PUSH1 0x3 DUP3 ADD SWAP1 PUSH2 0x5F3 SWAP1 DUP3 PUSH2 0xCB4 JUMP JUMPDEST POP PUSH1 0x80 DUP3 ADD MLOAD PUSH1 0x4 DUP3 ADD SWAP1 PUSH2 0x608 SWAP1 DUP3 PUSH2 0xCB4 JUMP JUMPDEST POP PUSH1 0xA0 DUP3 ADD MLOAD PUSH1 0x5 DUP3 ADD SSTORE PUSH1 0xC0 DUP3 ADD MLOAD PUSH1 0x6 DUP3 ADD DUP1 SLOAD PUSH1 0xFF NOT AND PUSH1 0x1 DUP4 PUSH1 0x2 DUP2 GT ISZERO PUSH2 0x636 JUMPI PUSH2 0x636 PUSH2 0x9E1 JUMP JUMPDEST MUL OR SWAP1 SSTORE POP SWAP1 POP POP PUSH32 0x745B3DFE762065DFB3F74ABE31FD4C30F096502CFE515D15DA5FF3C9FD61D8A2 PUSH0 SLOAD DUP5 DUP4 CALLER PUSH1 0x40 MLOAD PUSH2 0x674 SWAP5 SWAP4 SWAP3 SWAP2 SWAP1 PUSH2 0xD74 JUMP JUMPDEST PUSH1 0x40 MLOAD DUP1 SWAP2 SUB SWAP1 LOG1 POP POP POP JUMP JUMPDEST PUSH0 DUP2 DUP2 MSTORE PUSH1 0x1 PUSH1 0x20 DUP2 SWAP1 MSTORE PUSH1 0x40 SWAP1 SWAP2 KECCAK256 SWAP1 PUSH1 0x6 DUP3 ADD SLOAD PUSH1 0xFF AND PUSH1 0x2 DUP2 GT ISZERO PUSH2 0x6AB JUMPI PUSH2 0x6AB PUSH2 0x9E1 JUMP JUMPDEST EQ PUSH2 0x6F8 JUMPI PUSH1 0x40 MLOAD PUSH3 0x461BCD PUSH1 0xE5 SHL DUP2 MSTORE PUSH1 0x20 PUSH1 0x4 DUP3 ADD MSTORE PUSH1 0x1E PUSH1 0x24 DUP3 ADD MSTORE PUSH32 0x46756E647320617265206E6F742063757272656E746C79206C6F636B65640000 PUSH1 0x44 DUP3 ADD MSTORE PUSH1 0x64 ADD PUSH2 0x3B8 JUMP JUMPDEST PUSH1 0x2 DUP2 ADD SLOAD PUSH1 0x1 PUSH1 0x1 PUSH1 0xA0 SHL SUB AND CALLER EQ PUSH2 0x75F JUMPI PUSH1 0x40 MLOAD PUSH3 0x461BCD PUSH1 0xE5 SHL DUP2 MSTORE PUSH1 0x20 PUSH1 0x4 DUP3 ADD MSTORE PUSH1 0x22 PUSH1 0x24 DUP3 ADD MSTORE PUSH32 0x4F6E6C79207468652062757965722063616E20636F6E6669726D207265636569 PUSH1 0x44 DUP3 ADD MSTORE PUSH2 0x1C1D PUSH1 0xF2 SHL PUSH1 0x64 DUP3 ADD MSTORE PUSH1 0x84 ADD PUSH2 0x3B8 JUMP JUMPDEST PUSH1 0x6 DUP2 ADD DUP1 SLOAD PUSH1 0xFF NOT AND PUSH1 0x2 OR SWAP1 SSTORE PUSH1 0x1 DUP2 ADD SLOAD PUSH1 0x5 DUP3 ADD SLOAD PUSH1 0x40 MLOAD PUSH0 SWAP3 PUSH1 0x1 PUSH1 0x1 PUSH1 0xA0 SHL SUB AND SWAP2 SWAP1 DUP4 DUP2 DUP2 DUP2 DUP6 DUP8 GAS CALL SWAP3 POP POP POP RETURNDATASIZE DUP1 PUSH0 DUP2 EQ PUSH2 0x7BE JUMPI PUSH1 0x40 MLOAD SWAP2 POP PUSH1 0x1F NOT PUSH1 0x3F RETURNDATASIZE ADD AND DUP3 ADD PUSH1 0x40 MSTORE RETURNDATASIZE DUP3 MSTORE RETURNDATASIZE PUSH0 PUSH1 0x20 DUP5 ADD RETURNDATACOPY PUSH2 0x7C3 JUMP JUMPDEST PUSH1 0x60 SWAP2 POP JUMPDEST POP POP SWAP1 POP DUP1 PUSH2 0x814 JUMPI PUSH1 0x40 MLOAD PUSH3 0x461BCD PUSH1 0xE5 SHL DUP2 MSTORE PUSH1 0x20 PUSH1 0x4 DUP3 ADD MSTORE PUSH1 0x10 PUSH1 0x24 DUP3 ADD MSTORE PUSH32 0x5472616E73666572206661696C65642E00000000000000000000000000000000 PUSH1 0x44 DUP3 ADD MSTORE PUSH1 0x64 ADD PUSH2 0x3B8 JUMP JUMPDEST PUSH1 0x40 MLOAD DUP4 DUP2 MSTORE PUSH32 0x60F91A26281F20FB528663F4DA55773C83E2EE8A7A5DDDB6D1753749E81DC49B SWAP1 PUSH1 0x20 ADD PUSH2 0x674 JUMP JUMPDEST PUSH1 0x1 PUSH1 0x20 DUP2 SWAP1 MSTORE PUSH0 SWAP2 DUP3 MSTORE PUSH1 0x40 SWAP1 SWAP2 KECCAK256 DUP1 SLOAD SWAP2 DUP2 ADD SLOAD PUSH1 0x2 DUP3 ADD SLOAD PUSH1 0x3 DUP4 ADD DUP1 SLOAD PUSH1 0x1 PUSH1 0x1 PUSH1 0xA0 SHL SUB SWAP4 DUP5 AND SWAP5 SWAP3 SWAP1 SWAP4 AND SWAP3 PUSH2 0x87F SWAP1 PUSH2 0xC0C JUMP JUMPDEST DUP1 PUSH1 0x1F ADD PUSH1 0x20 DUP1 SWAP2 DIV MUL PUSH1 0x20 ADD PUSH1 0x40 MLOAD SWAP1 DUP2 ADD PUSH1 0x40 MSTORE DUP1 SWAP3 SWAP2 SWAP1 DUP2 DUP2 MSTORE PUSH1 0x20 ADD DUP3 DUP1 SLOAD PUSH2 0x8AB SWAP1 PUSH2 0xC0C JUMP JUMPDEST DUP1 ISZERO PUSH2 0x8F6 JUMPI DUP1 PUSH1 0x1F LT PUSH2 0x8CD JUMPI PUSH2 0x100 DUP1 DUP4 SLOAD DIV MUL DUP4 MSTORE SWAP2 PUSH1 0x20 ADD SWAP2 PUSH2 0x8F6 JUMP JUMPDEST DUP3 ADD SWAP2 SWAP1 PUSH0 MSTORE PUSH1 0x20 PUSH0 KECCAK256 SWAP1 JUMPDEST DUP2 SLOAD DUP2 MSTORE SWAP1 PUSH1 0x1 ADD SWAP1 PUSH1 0x20 ADD DUP1 DUP4 GT PUSH2 0x8D9 JUMPI DUP3 SWAP1 SUB PUSH1 0x1F AND DUP3 ADD SWAP2 JUMPDEST POP POP POP POP POP SWAP1 DUP1 PUSH1 0x4 ADD DUP1 SLOAD PUSH2 0x90B SWAP1 PUSH2 0xC0C JUMP JUMPDEST DUP1 PUSH1 0x1F ADD PUSH1 0x20 DUP1 SWAP2 DIV MUL PUSH1 0x20 ADD PUSH1 0x40 MLOAD SWAP1 DUP2 ADD PUSH1 0x40 MSTORE DUP1 SWAP3 SWAP2 SWAP1 DUP2 DUP2 MSTORE PUSH1 0x20 ADD DUP3 DUP1 SLOAD PUSH2 0x937 SWAP1 PUSH2 0xC0C JUMP JUMPDEST DUP1 ISZERO PUSH2 0x982 JUMPI DUP1 PUSH1 0x1F LT PUSH2 0x959 JUMPI PUSH2 0x100 DUP1 DUP4 SLOAD DIV MUL DUP4 MSTORE SWAP2 PUSH1 0x20 ADD SWAP2 PUSH2 0x982 JUMP JUMPDEST DUP3 ADD SWAP2 SWAP1 PUSH0 MSTORE PUSH1 0x20 PUSH0 KECCAK256 SWAP1 JUMPDEST DUP2 SLOAD DUP2 MSTORE SWAP1 PUSH1 0x1 ADD SWAP1 PUSH1 0x20 ADD DUP1 DUP4 GT PUSH2 0x965 JUMPI DUP3 SWAP1 SUB PUSH1 0x1F AND DUP3 ADD SWAP2 JUMPDEST POP POP POP POP PUSH1 0x5 DUP4 ADD SLOAD PUSH1 0x6 SWAP1 SWAP4 ADD SLOAD SWAP2 SWAP3 SWAP2 PUSH1 0xFF AND SWAP1 POP DUP8 JUMP JUMPDEST PUSH0 PUSH1 0x20 DUP3 DUP5 SUB SLT ISZERO PUSH2 0x9AC JUMPI PUSH0 DUP1 REVERT JUMPDEST POP CALLDATALOAD SWAP2 SWAP1 POP JUMP JUMPDEST PUSH0 DUP2 MLOAD DUP1 DUP5 MSTORE DUP1 PUSH1 0x20 DUP5 ADD PUSH1 0x20 DUP7 ADD MCOPY PUSH0 PUSH1 0x20 DUP3 DUP7 ADD ADD MSTORE PUSH1 0x20 PUSH1 0x1F NOT PUSH1 0x1F DUP4 ADD AND DUP6 ADD ADD SWAP2 POP POP SWAP3 SWAP2 POP POP JUMP JUMPDEST PUSH4 0x4E487B71 PUSH1 0xE0 SHL PUSH0 MSTORE PUSH1 0x21 PUSH1 0x4 MSTORE PUSH1 0x24 PUSH0 REVERT JUMPDEST PUSH1 0x3 DUP2 LT PUSH2 0xA11 JUMPI PUSH4 0x4E487B71 PUSH1 0xE0 SHL PUSH0 MSTORE PUSH1 0x21 PUSH1 0x4 MSTORE PUSH1 0x24 PUSH0 REVERT JUMPDEST SWAP1 MSTORE JUMP JUMPDEST PUSH1 0x20 DUP2 MSTORE DUP2 MLOAD PUSH1 0x20 DUP3 ADD MSTORE PUSH0 PUSH1 0x20 DUP4 ADD MLOAD PUSH1 0x1 PUSH1 0x1 PUSH1 0xA0 SHL SUB DUP1 DUP3 AND PUSH1 0x40 DUP6 ADD MSTORE DUP1 PUSH1 0x40 DUP7 ADD MLOAD AND PUSH1 0x60 DUP6 ADD MSTORE POP POP PUSH1 0x60 DUP4 ADD MLOAD PUSH1 0xE0 PUSH1 0x80 DUP5 ADD MSTORE PUSH2 0xA5E PUSH2 0x100 DUP5 ADD DUP3 PUSH2 0x9B3 JUMP JUMPDEST SWAP1 POP PUSH1 0x80 DUP5 ADD MLOAD PUSH1 0x1F NOT DUP5 DUP4 SUB ADD PUSH1 0xA0 DUP6 ADD MSTORE PUSH2 0xA7B DUP3 DUP3 PUSH2 0x9B3 JUMP JUMPDEST SWAP2 POP POP PUSH1 0xA0 DUP5 ADD MLOAD PUSH1 0xC0 DUP5 ADD MSTORE PUSH1 0xC0 DUP5 ADD MLOAD PUSH2 0xA9A PUSH1 0xE0 DUP6 ADD DUP3 PUSH2 0x9F5 JUMP JUMPDEST POP SWAP4 SWAP3 POP POP POP JUMP JUMPDEST PUSH4 0x4E487B71 PUSH1 0xE0 SHL PUSH0 MSTORE PUSH1 0x41 PUSH1 0x4 MSTORE PUSH1 0x24 PUSH0 REVERT JUMPDEST PUSH0 DUP3 PUSH1 0x1F DUP4 ADD SLT PUSH2 0xAC5 JUMPI PUSH0 DUP1 REVERT JUMPDEST DUP2 CALLDATALOAD PUSH8 0xFFFFFFFFFFFFFFFF DUP1 DUP3 GT ISZERO PUSH2 0xAE0 JUMPI PUSH2 0xAE0 PUSH2 0xAA2 JUMP JUMPDEST PUSH1 0x40 MLOAD PUSH1 0x1F DUP4 ADD PUSH1 0x1F NOT SWAP1 DUP2 AND PUSH1 0x3F ADD AND DUP2 ADD SWAP1 DUP3 DUP3 GT DUP2 DUP4 LT OR ISZERO PUSH2 0xB08 JUMPI PUSH2 0xB08 PUSH2 0xAA2 JUMP JUMPDEST DUP2 PUSH1 0x40 MSTORE DUP4 DUP2 MSTORE DUP7 PUSH1 0x20 DUP6 DUP9 ADD ADD GT ISZERO PUSH2 0xB20 JUMPI PUSH0 DUP1 REVERT JUMPDEST DUP4 PUSH1 0x20 DUP8 ADD PUSH1 0x20 DUP4 ADD CALLDATACOPY PUSH0 PUSH1 0x20 DUP6 DUP4 ADD ADD MSTORE DUP1 SWAP5 POP POP POP POP POP SWAP3 SWAP2 POP POP JUMP JUMPDEST PUSH0 DUP1 PUSH0 PUSH1 0x60 DUP5 DUP7 SUB SLT ISZERO PUSH2 0xB51 JUMPI PUSH0 DUP1 REVERT JUMPDEST DUP4 CALLDATALOAD PUSH8 0xFFFFFFFFFFFFFFFF DUP1 DUP3 GT ISZERO PUSH2 0xB68 JUMPI PUSH0 DUP1 REVERT JUMPDEST PUSH2 0xB74 DUP8 DUP4 DUP9 ADD PUSH2 0xAB6 JUMP JUMPDEST SWAP5 POP PUSH1 0x20 DUP7 ADD CALLDATALOAD SWAP2 POP DUP1 DUP3 GT ISZERO PUSH2 0xB89 JUMPI PUSH0 DUP1 REVERT JUMPDEST POP PUSH2 0xB96 DUP7 DUP3 DUP8 ADD PUSH2 0xAB6 JUMP JUMPDEST SWAP3 POP POP PUSH1 0x40 DUP5 ADD CALLDATALOAD SWAP1 POP SWAP3 POP SWAP3 POP SWAP3 JUMP JUMPDEST DUP8 DUP2 MSTORE PUSH0 PUSH1 0x1 PUSH1 0x1 PUSH1 0xA0 SHL SUB DUP1 DUP10 AND PUSH1 0x20 DUP5 ADD MSTORE DUP1 DUP9 AND PUSH1 0x40 DUP5 ADD MSTORE POP PUSH1 0xE0 PUSH1 0x60 DUP4 ADD MSTORE PUSH2 0xBD8 PUSH1 0xE0 DUP4 ADD DUP8 PUSH2 0x9B3 JUMP JUMPDEST DUP3 DUP2 SUB PUSH1 0x80 DUP5 ADD MSTORE PUSH2 0xBEA DUP2 DUP8 PUSH2 0x9B3 JUMP JUMPDEST SWAP2 POP POP DUP4 PUSH1 0xA0 DUP4 ADD MSTORE PUSH2 0xC00 PUSH1 0xC0 DUP4 ADD DUP5 PUSH2 0x9F5 JUMP JUMPDEST SWAP9 SWAP8 POP POP POP POP POP POP POP POP JUMP JUMPDEST PUSH1 0x1 DUP2 DUP2 SHR SWAP1 DUP3 AND DUP1 PUSH2 0xC20 JUMPI PUSH1 0x7F DUP3 AND SWAP2 POP JUMPDEST PUSH1 0x20 DUP3 LT DUP2 SUB PUSH2 0xC3E JUMPI PUSH4 0x4E487B71 PUSH1 0xE0 SHL PUSH0 MSTORE PUSH1 0x22 PUSH1 0x4 MSTORE PUSH1 0x24 PUSH0 REVERT JUMPDEST POP SWAP2 SWAP1 POP JUMP JUMPDEST PUSH0 PUSH1 0x1 DUP3 ADD PUSH2 0xC61 JUMPI PUSH4 0x4E487B71 PUSH1 0xE0 SHL PUSH0 MSTORE PUSH1 0x11 PUSH1 0x4 MSTORE PUSH1 0x24 PUSH0 REVERT JUMPDEST POP PUSH1 0x1 ADD SWAP1 JUMP JUMPDEST PUSH1 0x1F DUP3 GT ISZERO PUSH2 0xCAF JUMPI DUP1 PUSH0 MSTORE PUSH1 0x20 PUSH0 KECCAK256 PUSH1 0x1F DUP5 ADD PUSH1 0x5 SHR DUP2 ADD PUSH1 0x20 DUP6 LT ISZERO PUSH2 0xC8D JUMPI POP DUP1 JUMPDEST PUSH1 0x1F DUP5 ADD PUSH1 0x5 SHR DUP3 ADD SWAP2 POP JUMPDEST DUP2 DUP2 LT ISZERO PUSH2 0xCAC JUMPI PUSH0 DUP2 SSTORE PUSH1 0x1 ADD PUSH2 0xC99 JUMP JUMPDEST POP POP JUMPDEST POP POP POP JUMP JUMPDEST DUP2 MLOAD PUSH8 0xFFFFFFFFFFFFFFFF DUP2 GT ISZERO PUSH2 0xCCE JUMPI PUSH2 0xCCE PUSH2 0xAA2 JUMP JUMPDEST PUSH2 0xCE2 DUP2 PUSH2 0xCDC DUP5 SLOAD PUSH2 0xC0C JUMP JUMPDEST DUP5 PUSH2 0xC68 JUMP JUMPDEST PUSH1 0x20 DUP1 PUSH1 0x1F DUP4 GT PUSH1 0x1 DUP2 EQ PUSH2 0xD15 JUMPI PUSH0 DUP5 ISZERO PUSH2 0xCFE JUMPI POP DUP6 DUP4 ADD MLOAD JUMPDEST PUSH0 NOT PUSH1 0x3 DUP7 SWAP1 SHL SHR NOT AND PUSH1 0x1 DUP6 SWAP1 SHL OR DUP6 SSTORE PUSH2 0xD6C JUMP JUMPDEST PUSH0 DUP6 DUP2 MSTORE PUSH1 0x20 DUP2 KECCAK256 PUSH1 0x1F NOT DUP7 AND SWAP2 JUMPDEST DUP3 DUP2 LT ISZERO PUSH2 0xD43 JUMPI DUP9 DUP7 ADD MLOAD DUP3 SSTORE SWAP5 DUP5 ADD SWAP5 PUSH1 0x1 SWAP1 SWAP2 ADD SWAP1 DUP5 ADD PUSH2 0xD24 JUMP JUMPDEST POP DUP6 DUP3 LT ISZERO PUSH2 0xD60 JUMPI DUP8 DUP6 ADD MLOAD PUSH0 NOT PUSH1 0x3 DUP9 SWAP1 SHL PUSH1 0xF8 AND SHR NOT AND DUP2 SSTORE JUMPDEST POP POP PUSH1 0x1 DUP5 PUSH1 0x1 SHL ADD DUP6 SSTORE JUMPDEST POP POP POP POP POP POP JUMP JUMPDEST DUP5 DUP2 MSTORE PUSH1 0x80 PUSH1 0x20 DUP3 ADD MSTORE PUSH0 PUSH2 0xD8C PUSH1 0x80 DUP4 ADD DUP7 PUSH2 0x9B3 JUMP JUMPDEST SWAP1 POP DUP4 PUSH1 0x40 DUP4 ADD MSTORE PUSH1 0x1 PUSH1 0x1 PUSH1 0xA0 SHL SUB DUP4 AND PUSH1 0x60 DUP4 ADD MSTORE SWAP6 SWAP5 POP POP POP POP POP JUMP INVALID LOG2 PUSH5 0x6970667358 0x22 SLT KECCAK256 SWAP16 DUP5 INVALID PUSH19 0xA38009D4FDCC214586981B392768FF06BA5016 0xD 0xA8 0xBD 0xB6 EXTCODEHASH LOG3 0xF7 0xB7 ADD PUSH5 0x736F6C6343 STOP ADDMOD NOT STOP CALLER "
    },
    "gasEstimates": {
      "creation": {
        "codeDepositCost": "710800",
        "executionCost": "5750",
        "totalCost": "716550"
      },
      "external": {
        "confirmReceipt(uint256)": "infinite",
        "createListing(string,string,uint256)": "infinite",
        "getListing(uint256)": "infinite",
        "getTotalListings()": "2356",
        "listingCount()": "2315",
        "listings(uint256)": "infinite",
        "payForListing(uint256)": "56533"
      }
    },
    "methodIdentifiers": {
      "confirmReceipt(uint256)": "843cba13",
      "createListing(string,string,uint256)": "4652c3e2",
      "getListing(uint256)": "107a274a",
      "getTotalListings()": "fbf30c35",
      "listingCount()": "a9b07c26",
      "listings(uint256)": "de74e57b",
      "payForListing(uint256)": "2e99b78d"
    }
  },
  "storageLayout": {
    "storage": [
      {
        "astId": 24,
        "contract": "SafeTrade.sol:SafeTrade",
        "label": "listingCount",
        "offset": 0,
        "slot": "0",
        "type": "t_uint256"
      },
      {
        "astId": 29,
        "contract": "SafeTrade.sol:SafeTrade",
        "label": "listings",
        "offset": 0,
        "slot": "1",
        "type": "t_mapping(t_uint256,t_struct(Listing)17_storage)"
      }
    ],
    "types": {
      "t_address_payable": {
        "encoding": "inplace",
        "label": "address payable",
        "numberOfBytes": "20"
      },
      "t_enum(State)21": {
        "encoding": "inplace",
        "label": "enum SafeTrade.State",
        "numberOfBytes": "1"
      },
      "t_mapping(t_uint256,t_struct(Listing)17_storage)": {
        "encoding": "mapping",
        "key": "t_uint256",
        "label": "mapping(uint256 => struct SafeTrade.Listing)",
        "numberOfBytes": "32",
        "value": "t_struct(Listing)17_storage"
      },
      "t_string_storage": {
        "encoding": "bytes",
        "label": "string",
        "numberOfBytes": "32"
      },
      "t_struct(Listing)17_storage": {
        "encoding": "inplace",
        "label": "struct SafeTrade.Listing",
        "members": [
          {
            "astId": 3,
            "contract": "SafeTrade.sol:SafeTrade",
            "label": "id",
            "offset": 0,
            "slot": "0",
            "type": "t_uint256"
          },
          {
            "astId": 5,
            "contract": "SafeTrade.sol:SafeTrade",
            "label": "seller",
            "offset": 0,
            "slot": "1",
            "type": "t_address_payable"
          },
          {
            "astId": 7,
            "contract": "SafeTrade.sol:SafeTrade",
            "label": "buyer",
            "offset": 0,
            "slot": "2",
            "type": "t_address_payable"
          },
          {
            "astId": 9,
            "contract": "SafeTrade.sol:SafeTrade",
            "label": "title",
            "offset": 0,
            "slot": "3",
            "type": "t_string_storage"
          },
          {
            "astId": 11,
            "contract": "SafeTrade.sol:SafeTrade",
            "label": "photoUrl",
            "offset": 0,
            "slot": "4",
            "type": "t_string_storage"
          },
          {
            "astId": 13,
            "contract": "SafeTrade.sol:SafeTrade",
            "label": "price",
            "offset": 0,
            "slot": "5",
            "type": "t_uint256"
          },
          {
            "astId": 16,
            "contract": "SafeTrade.sol:SafeTrade",
            "label": "state",
            "offset": 0,
            "slot": "6",
            "type": "t_enum(State)21"
          }
        ],
        "numberOfBytes": "224"
      },
      "t_uint256": {
        "encoding": "inplace",
        "label": "uint256",
        "numberOfBytes": "32"
      }
    }
  },
  "userdoc": {
    "kind": "user",
    "methods": {},
    "version": 1
  }
}